:020000040800F2
:10000000B8090020450100082D1A0008CB1300088C
:10001000291A0008950D0008E32B000800000000D5
:10002000000000000000000000000000972200080F
:10003000190E000800000000C11A0008D5230008AE
:100040005F0100085F0100085F010008F51E00085D
:100050005F0100085F0100085F0100085F01000800
:100060005F0100085F0100085F0100085F010008F0
:100070005F0100085F0100085F0100085F010008E0
:100080005F0100085F0100085F0100085F010008D0
:100090005F0100085F0100085F0100085F010008C0
:1000A0005F0100085F0100085F0100085F010008B0
:1000B0005F010008392400085F0100085F010008A3
:1000C0005F0100085F0100085F0100085F01000890
:1000D0005F010008B92500085D2600085F010008DF
:1000E0001D0E00085F0100085F0100085F010008A5
:1000F0005F0100085F0100085F0100085F01000860
:100100005F0100085F0100085F0100085F0100084F
:100110005F0100085F0100085F0100085F0100083F
:100120005F0100085F0100085F0100085F0100082F
:10013000DFF80CD000F064FC00480047054C0008D4
:10014000B80900200648804706480047FEE7FEE75A
:10015000FEE7FEE7FEE7FEE7FEE7FEE7FEE7FEE777
:10016000D9230008310100082DE9F0410024061BC5
:10017000254671F1000605DA01240027D0EB0700BF
:1001800067EB0101161E73F1000605DA0027D2EBBA
:100190000702012567EB030300F034FB86460E4699
:1001A00017469C46AC4204D00025D0EB050E65EB0B
:1001B000010624B10020D2EB000760EB030C70466F
:1001C00031463A466346BDE8F081D2B201E000F81C
:1001D000012B491EFBD270470022F6E710B51346EB
:1001E0000A4604461946FFF7F0FF204610BD30B519
:1001F00004460020034600E05B1C934203D2E05C0F
:10020000CD5C401BF8D030BDF0B480EA0102D40FC1
:100210004200B2EB410F02D20246084611464A00A4
:1002200042D0C30DDDB2C1F3C752AD1A202D35DA6D
:10023000C1F3160141F4000204B15242C5F1200697
:1002400002FA06F12A411044B3EBD05F23D0C4B1C7
:10025000012DA0EBC35009DCF0BC4FF0004202EAD4
:10026000C352DBB200F5000000F027BB400000F1F4
:10027000807000EBC350A0F1807040EAD17049005B
:1002800009E0490841EAC071A0EBC35000F5000045
:10029000400800EBC350F0BC00F006BB61420122F5
:1002A00002EB4101001BF6E7F0BC704781F0004112
:1002B000AAE780F00040A7E780EA010210B502F04B
:1002C0000043400022D04A001FD0010E01EB126112
:1002D000C0F35600C2F3560240F4000042F400029C
:1002E000A0FB022000047F39140400D0401C50EA17
:1002F000124001D44000491EC2B20C0604EBD010DB
:10030000401C4008802A02D003E0002010BD20F0ED
:100310000100002900DA0020184310BD30B480EA43
:10032000010202F0004530F0004221F0004013D0FD
:1003300090B1C30DD40DC2F31601C0F31600E41A38
:1003400041F4000140F400027D34914201D3641C69
:1003500000E04900002C02DA30BC002070474FF466
:1003600000000023914201D3891A034340084FEA59
:100370004101F7D151B1914202D14FF0004105E066
:1003800002D24FF0010101E06FF0010103EBC45014
:10039000284430BC00F088BA2DE9FE4F804681EA3F
:1003A0000300C00F0C46009021F0004123F00045EF
:1003B000B8EB0200A94105D24046214690461C46B2
:1003C0000B46024623F00040104347D0270DC7F3E9
:1003D0000A00C3F30A510290401A019040286BDAD8
:1003E000C3F3130040F4801B0098924620B1002311
:1003F000D2EB030A63EB0B0B01985946C0F14002A4
:10040000504600F030FA06460D4650465946019ACD
:1004100000F038FA10EB08006141002487EA11521D
:1004200084EAE7731A4340D0009A62B3019A012A22
:100430004FEA075215DC001B61EB02014FF000424E
:1004400002EA0752CDE90042001C41F58011324614
:100450002B4600F06FFA03B0BDE8F08F404621460E
:10046000F9E7001B61EB0201001C41F58013001845
:100470005B412018A2F5001747EB030140EAD57055
:10048000B6196D4111E06D084FEA360645EAC075B0
:100490004FEA0752001B61EB0201001C41F580117D
:1004A00049084FEA30000019514132462B4603B04B
:1004B000BDE8F04F00F02FBA009801224000002361
:1004C000D0EB020263EBE073009821464FEAE07440
:1004D000B8EB000061EB0401E9E783F000435BE760
:1004E00081F0004158E72DE9FE4F81EA030404F052
:1004F000004421F0004100944FF0000B23F0004332
:1005000050EA01045ED052EA03045BD0C3F30A54FC
:10051000C1F30A552C44A4F2F3340194A0FB025415
:10052000C1F3130141F48011C3F3130343F48013A7
:1005300001FB024400FB034E840A970A44EA8154FB
:1005400047EA8357A4FB076802958D0A05FB0785D8
:100550004FEA932C04FB0C542705029D4FEA0658E2
:1005600047EA1637B5EB08056EEB070C870E920EBF
:1005700047EA811742EA8312A7FB0201B6EB0B019F
:1005800064EB00042B0D43EA0C335E1844EB1C5063
:10059000DA465146E7FB0201C5F313044FEA0B3379
:1005A00043EA14534FEA0432019C43EA0603A4F1E0
:1005B0000C040294009CCDE900B400F0BBF903B038
:1005C000BDE8F08F00200146F9E72DE9F04D81EA02
:1005D000030404F0004B21F0004514464FF0000ADC
:1005E00023F0004150EA050220D054EA01021DD058
:1005F000C5F30A570246C5F31303C1F31300C1F351
:100600000A5640F4801543F48013A7EB0608101B2C
:10061000D64608F2FD3873EB050002D308F1010855
:1006200001E092185B41B8F1000F03DA00200146A7
:10063000BDE8F08D00204FF48011064684460EE0A0
:10064000171B73EB050705D3121B63EB050306436A
:100650004CEA010C49084FEA300092185B4150EA1D
:100660000107EDD152EA030012D082EA040083EAC6
:100670000501084305D0101BAB4106D2012200231F
:1006800006E000224FF0004302E06FF00102531039
:100690001AEB06004CEB085110EB0A0041EB0B0182
:1006A000BDE8F04D00F037B9C10F80EAE0700844B2
:1006B000CA079623002100F000B9962300221146B4
:1006C00000F0FBB800F0004220F00040C10DC0F384
:1006D000160040F400007F2901DA002070479629B7
:1006E00003DCC1F19601C84001E096398840002A38
:1006F000F4D04042704720F00040C10DC0F3160016
:1007000040F400007F2901DA00207047962903DCBD
:10071000C1F19601C840704796398840704700F093
:10072000004230F000400AD0C10D01F56071C0F305
:10073000160042EA0151C2084007114370470020E9
:100740000146704730B5041E71F1000404DB4FF020
:100750000044404264EB0101141E73F1000405DB08
:100760001C464FF00043524263EB04038B4208BF28
:10077000824230BD30B5041E71F1000404DB4FF03D
:100780000044404264EB0101141E73F1000405DBD8
:100790001C464FF00043524263EB0403994208BFEA
:1007A000904230BD01F0004330B421F0004150EAE6
:1007B000010206D00A0DA2F56072C1F31301002AEE
:1007C00002DC30BC00207047440F44EAC104C10081
:1007D000E01830BC00EBC25000F066B8002801DB26
:1007E000C0F10040002901DBC1F1004181427047A6
:1007F000002801DBC0F10040002901DBC1F100410C
:10080000884270472DE9F05F0546002092469B46DE
:1008100088460646814640241BE028464146474616
:10082000224600F0FFF853465A46C01A914110D3B1
:1008300011461846224600F016F82D1A67EB0108FB
:100840004F4622460120002100F00DF817EB000969
:100850004E41201EA4F10104DFDC484631462A4601
:100860004346BDE8F09F202A04DB203A00FA02F15B
:10087000002070479140C2F1200320FA03F319438E
:1008800090407047202A06DBCB17203A41FA02F04D
:1008900043EAE07306E041FA02F3D040C2F12002DD
:1008A00091400843194670470029A8BF7047401C73
:1008B000490008BF20F00100704710B4B0FA80FC76
:1008C00000FA0CF050EA010404BF10BC704749B1B3
:1008D000CCF1200421FA04F411FA0CF118BF012123
:1008E00021430843A3EB0C01CB1D4FEA00614FEA03
:1008F000102042BF002010BC704700EBC3501044D2
:100900000029A4BF10BC7047401C490008BF20F05C
:10091000010010BC704710B5141E73F1000408DA12
:10092000401C41F1000192185B411A4301D120F0B3
:10093000010010BD2DE9F04D92469B4611B1B1FA70
:1009400081F202E0B0FA80F220329046FFF78BFF8E
:1009500004460F4640EA0A0041EA0B0153465A4654
:10096000084313D0114653EA010019D0C8F14002E0
:10097000504600F057F805460E4650465946424646
:10098000FFF771FF084305D0012004E020463946F7
:10099000BDE8F08D0020054346EAE0762C4337435E
:1009A0000A986305E40AA0EB08000022FD0A44EA65
:1009B00047540A3002D500200146E9E70105101925
:1009C0006941DDE9084500196941BDE8F04DA2E73C
:1009D00070B521F0004303430CD0C1F30A55002445
:1009E000D5EB040564EB0403D617AD1AB34102DB63
:1009F0000020014670BD201841EB025170BD00007F
:100A0000064C074D06E0E06840F0010394E807005B
:100A100098471034AC42F6D3FFF78EFBF87000080D
:100A200018710008202A04DB203A21FA02F0002184
:100A3000704721FA02F3D040C2F1200291400843EE
:100A4000194670472DE9F04D00231A461B1A8A41BA
:100A500003DB00200146BDE8F08DC1F30A52C1F36B
:100A6000130141F480154FF0000BD10702D100189B
:100A70006D41521E0027044640F2FF11384601EB3B
:100A8000620A3E468046024600204FF48011FFF77E
:100A9000C9FFC2197141BB1846EB0100B4EB030C4E
:100AA00075EB000C04D3E41A65EB000517460E46FF
:100AB000241908F101006D4180463428E3DDF9195D
:100AC00046EB0600091BA84103D24FF0FF32134644
:100AD00001E0002213461BEB070046EB0A51BDE87C
:100AE000F04DFFF718BF21B1826842F00102826029
:100AF00003E0826822F001028260704710B504466C
:100B00001248844208D10121401501F007F8002164
:100B1000601501F003F817E00D48844208D1012167
:100B2000001500F0FBFF0021201500F0F7FF0BE09F
:100B30000848844208D10121C80300F0EFFF0021DA
:100B40004FF4004000F0EAFF10BD00000024014017
:100B500000280140003C0140014600208A6802F064
:100B600004020AB1012000E0002070470146C86C71
:100B700080B270470246002013680B400BB1012081
:100B800000E000207047014600208A6802F0080259
:100B90000AB1012000E000207047000030B5024695
:100BA0000020002350680F4C20400D790C6844EA67
:100BB00005242043506090680B4C2040D1E902543A
:100BC0002C434D7944EA450420439060D06A20F4D8
:100BD00070000C7C641EE4B2234340EA0350D062F0
:100BE00030BD0000FFFEF0FFFDF7F1FFF0B5044659
:100BF0000D4600200021092D11DDE068A5F10A064F
:100C000006EB4607072606FA07F18843A5F10A0610
:100C100006EB460603FA06F10843E0600CE02069A3
:100C200005EB4507072606FA07F1884305EB45065D
:100C300003FA06F108432061072A0FDA606B561E9B
:100C400006EB86071F2606FA07F18843561E06EBB9
:100C5000860605FA06F10843606322E00D2A0FDAE2
:100C6000206BD61F06EB86071F2606FA07F188437E
:100C7000D61F06EB860605FA06F10843206310E04E
:100C8000E06AA2F10D0606EB86071F2606FA07F1B9
:100C90008843A2F10D0606EB860605FA06F1084325
:100CA000E062F0BD816841F008018160704721B1C8
:100CB000826842F4A002826003E0826822F4A0020B
:100CC00082607047816841F00401816070470000D4
:100CD00000B587B001214FF4017000F00FFF4FF411
:100CE000004000F0EFFE0120ADF8040000208DF878
:100CF000070001A9174800F02BFA1748FFF7FEFE7E
:100D0000002002908DF80C008DF80D004FF460204B
:100D100004900020059001208DF8180002A90E48CB
:100D2000FFF73CFF01210C48FFF7DDFE0A48FFF703
:100D3000B9FF00BF0848FFF726FF0028FAD1064890
:100D4000FFF7C0FF00BF0448FFF706FF0028FAD1F5
:100D500007B000BD000801400024014010B501208B
:100D600000F0ECFE002000F0E9FE10BD0149086033
:100D70007047000000860D4208B505A0006800908D
:100D8000022002F0B5FD6946042001F085FA08BD95
:100D900003C0030500BFFEE710B5002401200C4985
:100DA00008600C49C1F8980110E04FF400410A486E
:100DB00000F0A2FA40B9601CC4B21E2002F098FDF7
:100DC000642C03DB012010BD0020FCE7EDE70000F0
:100DD0009C812142008021420008014010B500247E
:100DE00001200B49086011E04FF48061094800F0D0
:100DF00083FA012808D1601CC4B21E2002F078FDDD
:100E0000642C03DB012010BD0020FCE7ECE70000B0
:100E100098812142000C01407047000010B54FF44A
:100E2000004000F08DF840B10A2002F061FDFFF7AC
:100E3000B3FF4FF4004000F07DF84FF4806000F005
:100E40007FF8D8B10A2002F053FDFFF7C7FF88B141
:100E500000201249086042F2283002F049FD0020CB
:100E60000F49C1F8980101200C49086041F288300F
:100E700002F03EFD4FF4806000F05CF84FF400603B
:100E800000F05EF840B1002006490870064908707D
:100E90004FF4006000F04EF810BD00009881214230
:100EA0000000214206000020650000200EB500F081
:100EB000ABFA0121084600F021FE0F21002000F0CE
:100EC00027F94FF40040019000208DF808000C2015
:100ED0008DF8090001208DF80A0001A800F044F8FF
:100EE0000A21012000F014F94FF4806001900820DD
:100EF0008DF8090001A800F037F80B21012000F05F
:100F000007F94FF40060019008208DF8090001A84E
:100F100000F02AF828208DF8000002208DF801004A
:100F200003208DF8020001208DF80300684600F0D0
:100F30007FFD0EBD014908607047000014040140A8
:100F4000014600200022074B1B6803EA0102054B03
:100F500014331B680B4013B10AB1012000E00020DC
:100F60007047000000040140002123498279002AD3
:100F70003AD00A46126803689A430B461A600A1D63
:100F8000126803689A430B1D1A60027911440A68BB
:100F900003681A430A60184A0832126803689A43C1
:100FA000154B08331A601A1D126803689A43124BD6
:100FB0000C331A604279102A0ED11A1F1268036886
:100FC0001A430D4B08331A601A1D126803681A433E
:100FD000094B0C331A600DE00749427911440A6845
:100FE00003681A430A6005E0027911440A6803683D
:100FF0009A430A60704700000004014030B504467F
:1010000004254FF4302000F06FF80546042D17D169
:101010000C48006940F002000A4908610846446132
:10102000006940F0400008614FF4302000F05CF8A7
:1010300005460448006941F6FD7108400149086110
:10104000284630BD0020024004200B49C96801F049
:10105000010109B101200EE00749C96801F004014E
:1010600009B1022007E00449C96801F0100109B183
:10107000032000E00420704700200240034800697C
:1010800040F08000014908617047000000200240E4
:1010900070B504460D460426F00200F025F8064619
:1010A000042E11D10948006940F001000749086188
:1010B0002580F00200F018F806460448006941F661
:1010C000FE71084001490861304670BD00200240B1
:1010D0000248034948600348486070472301674558
:1010E00000200240AB89EFCD00B502460423FFF794
:1010F000ABFF034603E0FFF7A7FF0346521E012B99
:1011000001D1002AF7D102B90523184600BD00001D
:1011100030B500228B071C0F0F2303FA04F20B4B90
:101120008C1053F824309343084C8D1044F825302C
:1011300023468C1053F824308C07240F00FA04F453
:101140002343024C8D1044F8253030BD0800014087
:101150002DE9F0410246002500260020002300244E
:10116000002791F803C00CF00F0591F803C00CF0B4
:10117000100CBCF1000F03D091F802C04CEA050539
:1011800091F800C0BCF1000F31D0146800202BE0B2
:101190004FF0010C0CFA00F3B1F800C00CEA0306A2
:1011A0009E4220D183004FF00F0C0CFA03F7BC4392
:1011B00005FA03FC4CEA040491F803C0BCF1280FC3
:1011C00006D14FF0010C0CFA00FCC2F814C00AE082
:1011D00091F803C0BCF1480F05D14FF0010C0CFA97
:1011E00000FCC2F810C0401C0828D1D31460B1F82C
:1011F00000C0BCF1FF0F34DD546800202EE000F188
:10120000080C4FF0010808FA0CF3B1F800C00CEA22
:1012100003069E4221D183004FF00F0C0CFA03F716
:10122000BC4305FA03FC4CEA040491F803C0BCF18A
:10123000280F05D100F1080C08FA0CF8C2F8148048
:1012400091F803C0BCF1480F07D100F1080C4FF032
:10125000010808FA0CF8C2F81080401C0828CED308
:101260005460BDE8F0810000F0B50A460023002478
:101270000021002500F00046B6F1004F02D11D4EBE
:10128000F16901E01B4E7168C0F3034583B200F4BD
:101290004016B6F5401F08D121F07061154E7668F2
:1012A00026F07066134F7E6012E000F48016B6F5EB
:1012B000801F06D1032606FA05F4A14341F07061B0
:1012C00006E0460D360103FA06F6B14341F07061BF
:1012D00022B1460D360103FA06F6314300F000460E
:1012E000B6F1004F02D1034EF16101E0014E716091
:1012F000F0BD0000000001400246002093680B4052
:101300000BB1012000E0002070474161704701618E
:101310007047000070B5022504260421002000F06B
:101320003DF804460F48008884420CDD0D480088D3
:10133000201AA84202DD0B48048010E0094800880A
:10134000084908800BE007480088001BB04202DD16
:101350000448048003E003480088024908800148EB
:10136000008870BD1800002010B504460723012234
:1013700021460948FFF73AFC01210748FFF797FC8F
:1013800000BF02210448FFF7F5FB0028F9D002480E
:10139000FFF7ECFB10BD0000002401402DE9F041F7
:1013A00007460C460025002608E03846FFF7DCFF1C
:1013B0000544052002F09CFA701CC6B2A642F4DB7C
:1013C000B5FBF4F080B2BDE8F08100BFFEE7014656
:1013D000CA1701EB92729210A1EB820292B96420BB
:1013E00091FBF0F200FB121050B94FF4C87091FB62
:1013F000F0F200FB121008B9012070470020FCE752
:101400000120FAE70020F8E708B50121082000F0E4
:1014100075FB4FF40040ADF8000048208DF8030044
:1014200069460E48FFF794FE4FF48060ADF8000067
:1014300028208DF8030069460948FFF789FE00203F
:10144000FFF794FC4FF40050ADF8000048208DF8F1
:10145000030069460348FFF77BFE08BD0008014012
:10146000000C01400010014008B501210C2000F0E3
:1014700045FB0121892000F041FB01212548FFF7B0
:10148000F3FE4020ADF8000014208DF80300032087
:101490008DF8020069462048FFF75AFE8020ADF81B
:1014A000000014208DF8030069461B48FFF750FE2A
:1014B0004020ADF8000010208DF803006946174861
:1014C000FFF746FE4FF40060ADF8000028208DF8CD
:1014D000030069461048FFF73BFE0820ADF8000006
:1014E00018208DF8030069460B48FFF731FE4021B4
:1014F0000948FFF70CFF80210748FFF708FF082184
:101500000548FFF702FF4FF480610348FFF7FDFE37
:1015100008BD000000023000000C0140000801403E
:1015200010B500200E4908600E48006820F0F00059
:101530000C4908600846006840F030000860002050
:101540000949C1F8A40100F011F80120044908601C
:1015500000F00CF800200449C1F8A00110BD000003
:10156000A0812142040C01400080214210B50220DC
:1015700002F0E4F910BD000008B50121082000F0D8
:10158000BDFA4FF44070ADF8000010208DF8030054
:1015900003208DF8020069460448FFF7D9FD4FF497
:1015A00040710248FFF7B3FE08BD0000000C014087
:1015B00010B500200E4908600E48006820F0F000C9
:1015C0000C4908600846006840F0300008600120BF
:1015D0000949C1F8A401FFF7C9FF012004490860C7
:1015E000FFF7C4FF00200449C1F8A00110BD0000AE
:1015F000A0812142040C01400080214270B50546C3
:1016000000241648006820F0F000144908600846DD
:10161000006840F080000860002614E000201049B7
:101620000860FFF7A3FF01200E49C1F8A001600682
:10163000040E0B487C38006808B1601CC4B2FFF788
:1016400095FF701CC6B2082EE8DB15B9FFF7B0FF96
:1016500001E0FFF765FF204670BD0000040C01406B
:10166000A08121420080214270B5044612480068E2
:1016700020F0F000104908600846006840F0300093
:10168000086000200D490860002512E0E0090B49C0
:10169000091D08606006040E01200949C1F8A00177
:1016A000FFF764FF002005490860FFF75FFF681C33
:1016B000C5B2082DEADB70BD040C0140A0812142B7
:1016C0000080214210B50E48006820F0F0000C495F
:1016D00008600846006840F03000086001200949B1
:1016E00008600949C1F8A001FFF740FF0020054943
:1016F0000860FFF73BFF00200349C1F8A00110BDBF
:10170000040C0140A48121420080214210B50E4802
:10171000006820F0F0000C4908600846006840F0BE
:10172000300008600020094908600949C1F8A40197
:10173000FFF71CFF0120054908600549C1F8A40115
:10174000FFF714FF10BD0000040C0140A0812142EE
:101750000080214210B500241448006820F0F000F9
:10176000124908600846006840F0800008600120C7
:101770000F490860FFF7FAFE01200E49C1F8A001E9
:10178000FFF7F4FE07E0601CC4B2FA2C03DDFFF79C
:10179000BDFF012010BD0648803800680028F2D146
:1017A0000349091F086000BFF4E70000040C014072
:1017B000A48121420080214210B50121084600F099
:1017C0009DF90121042000F099F9FFF7D5FE802151
:1017D0006B2000F0D7F8642002F08AF800216B201B
:1017E00000F0D0F8022000F08BF8002000F080F824
:1017F000322000F0AAF80021382000F0C3F80021C0
:101800006A2000F0BFF80021232000F0BBF88021FF
:10181000372000F0B7F8752000F013F80446682C64
:101820000BD101216B2000F0ADF800216C2000F0FD
:10183000A9F8322000F089F801E0012010BD002055
:10184000FCE770B50446FFF73DFFD020FFF70CFF23
:10185000FFF780FF2046FFF707FFFFF77BFFFFF74B
:1018600031FFD120FFF700FFFFF774FF0020FFF7E3
:10187000C5FE0546FFF74AFF284670BD2DE9F04139
:1018800006460F4614461D46FFF71CFF002141EA9D
:101890004601C8B2FFF7E8FEFFF75CFF20B1FFF793
:1018A00035FF0120BDE8F0813846FFF7DDFEFFF788
:1018B00051FFFFF707FF012101EB4601C8B2FFF717
:1018C000D3FEFFF747FF0DE0012C04D10020FFF706
:1018D00095FE287003E00120FFF790FE2870601E3F
:1018E000C4B26D1C002CEFD1FFF710FF0020D9E728
:1018F00010B50446E006010E1C2000F043F810BDB0
:1019000010B50446E006010E1B2000F03BF810BDA8
:1019100070B504460025BC2C01DB012510E0622CCB
:1019200001DB02250CE02A2C01DB032508E0142C46
:1019300001DB042504E00A2C01DB052500E0062577
:1019400029461A2000F01EF870BD70B50446B4F5A3
:101950007A7F01DD4FF47A74042C00DA04244FF40A
:101960007A7090FBF4F0401EC5B22946192000F0B1
:1019700009F80546264604EBD671C1F34F00FFF780
:10198000C7FF70BD70B505460C46FFF79BFED02023
:10199000FFF76AFEFFF7DEFE18B1FFF7B7FE012082
:1019A00070BD2846FFF760FEFFF7D4FE2046FFF724
:1019B0005BFEFFF7CFFE18B1FFF7A8FE0120EFE7AF
:1019C000FFF7A4FE0020EBE72DE9F04105460E46A7
:1019D00017469846FFF776FE002141EA4501C8B256
:1019E000FFF742FEFFF7B6FE20B1FFF78FFE0120A2
:1019F000BDE8F0813046FFF737FEFFF7ABFE00246D
:101A00000CE018F80400FFF72FFEFFF7A3FE18B153
:101A1000FFF77CFE0120EBE7601CC4B2BC42F0DBA8
:101A2000FFF774FE0020E3E700BFFEE77047000009
:101A300070B5002100230F22C47804B3154C24682C
:101A400004F4E064C4F5E064210AC1F10403CA406F
:101A5000447804FA03F184781440214309010E4CC0
:101A60000678A155047804F01F050124AC400578E0
:101A70006D11AD0005F1E025C5F8004109E00478DD
:101A800004F01F050124AC40044D0678761145F89A
:101A9000264070BD0CED00E000E400E080E100E0D5
:101AA00002490143024A1160704700000000FA0534
:101AB0000CED00E0014908627047000000000E4292
:101AC0007047000001460020034A506820F440405F
:101AD00008435060704700000010024029B1064AD8
:101AE000D2690243044BDA6104E0034AD2698243BB
:101AF000014BDA61704700000010024029B1064A2C
:101B000092690243044B9A6104E0034A926982435A
:101B1000014B9A61704700000010024029B1064A4B
:101B2000D2680243044BDA6004E0034AD26882437D
:101B3000014BDA6070470000001002400149086064
:101B4000704700004004424230B5002100220024CA
:101B500000232D4D6D6805F00C0121B1042905D03D
:101B6000082923D105E0294D056022E0274D0560B5
:101B70001FE0254D6D6805F47012234D6D6805F466
:101B80008034022505EB92421CB9214D5543056076
:101B90000BE01D4D6D6805F400351DB11C4D55431E
:101BA000056002E0194D5543056002E0174D0560E0
:101BB00000BF00BF144D6D6805F0F0010909154D17
:101BC0006B5C0568DD4045600F4D6D6805F4E061B4
:101BD000090A104D6B5C4568DD4085600A4D6D68F3
:101BE00005F46051C90A0B4D6B5C4568DD40C5606A
:101BF000054D6D6805F44041890B074D6B5CC56868
:101C0000B5FBF3F5056130BD0010024000127A000B
:101C100000093D008800002098000020014908606C
:101C2000704700008004424201490860704700008C
:101C30003C0442420249096A0143014A1162704769
:101C4000001002402DE9F05F06460F469046994687
:101C5000DDE90AAB002440F2B270864203DB40F6B5
:101C60003300864202DD0120BDE8F09F40F2B275EC
:101C70000AE02846FFF7ABFB10B12048044401E01E
:101C80001F480444681C85B2B542F2DB781EC7B217
:101C9000002510E01B48405D40F2A321484304EBBF
:101CA000C0143046FFF793FB18B1012D01D116483F
:101CB0000444681C85B2BD42ECDBA8F1010040F28F
:101CC000A321484304EBC014C9EB4910C0EB092021
:101CD00004EB0014CAEB0A1004EB80045C440121FD
:101CE0004FF0C050FFF7FAFE0120FFF7E3FE204659
:101CF00000F0EEF900F018FA0020B5E70085E201E7
:101D00008033E101A66F0008805101000249098873
:101D10008143014A1180704704280040034800882D
:101D200040F010000149088070470000042800407E
:101D3000034800884FF6EF7108400149088070475A
:101D40000428004070B500260024002500F07AF831
:101D500006463848B6FBF0F437480088A0423CD02D
:101D600035490C8040F2B27510E02846FFF72FFB92
:101D700040B1B4F5B77F02D3A4F5B77404E0681C92
:101D800085B206E0A4F26D14681C85B2B4F5B67F86
:101D9000EBD800BF29488580002516E027498888B0
:101DA000FFF715FB30B1012D04D11D2C01D31D3CD3
:101DB00009E00CE02248405DA04203D82048405D85
:101DC000241A00E003E0681C85B21C2CE6D200BF98
:101DD000681C1A498871601CC8711648B6FBF0F17E
:101DE00000FB11644FF46160B4FBF0F0134908701C
:101DF0004FF46160B4FBF0F100FB11403C21B0FBFB
:101E0000F1F00E4948704FF46160B4FBF0F100FB53
:101E100011403C21B0FBF1F201FB12000749887030
:101E20000B46DA799979988800F028F80349087206
:101E3000002070BD8051010066000020BC00002021
:101E4000A66F0008002103480188001F008841EAAE
:101E5000004070471C28004001460020064A1288B6
:101E60000A40D0B2044A121F12880A4012B108B1C7
:101E7000012000E00020704704280040F0B5034630
:101E80000C461546642093FBF0F0C6B2642093FB29
:101E9000F0F700FB1730C1B2132E02DD01F1640030
:101EA000C1B20846CF1701EB977701EBA707BAB28B
:101EB000072092FBF0F700FB172082B25719601E33
:101EC000DFF82CC01CF80000384482B2CF1701EBB9
:101ED0009777BF10A1EB87071FB9032C01DA501EBB
:101EE00082B2072092FBF0F700FB1720C0B2F0BDD2
:101EF0009A6F000810B50120FFF7AEFF08B1FFF799
:101F000021FF0220FFF7A8FF70B10220FFF7FEFEBD
:101F1000FFF718FF002007490860074908700749C4
:101F200008700749C1F898010520FFF7EFFE00F09F
:101F3000FBF810BD9881214204000020060000201B
:101F40000000214229B1064A12880243044B1A803C
:101F500004E0034A12888243014B1A807047000054
:101F6000002800401CB5002401214FF0C050FFF7AD
:101F7000B5FD0120FFF79EFD0120FFF74FFEFEF7A4
:101F8000EDFE4FF44070FFF755FE0120FFF74CFEC9
:101F900000F0CAF800F0D2F801210846FFF7D2FF9E
:101FA00000F0C2F8FFF7BAFE0E4800F0ADF800F0FE
:101FB000BBF800200090034601221146019040F238
:101FC000E57000F021F8FFF7B3FE01210220FFF7D2
:101FD000B9FF00F0A9F800F007F8FFF7B3FE002002
:101FE0001CBD00006BDC020008B503208DF800006A
:101FF00000208DF801008DF8020001208DF803000B
:102000006846FFF715FD08BD2DE9F05F06460F464F
:1020100090469946DDE90AAB002440F2B270864250
:1020200003DB40F63300864202DD0120BDE8F09F6D
:1020300040F2B2750AE02846FFF7C9F910B120480E
:10204000044401E01F480444681C85B2B542F2DB39
:10205000781EC7B2002510E01B48405D40F2A32166
:10206000484304EBC0143046FFF7B1F918B1012D15
:1020700001D116480444681C85B2BD42ECDBA8F1CE
:10208000010040F2A321484304EBC014C9EB4910FE
:10209000C0EB092004EB0014CAEB0A1004EB800427
:1020A0005C4401214FF0C050FFF718FD0120FFF7FD
:1020B00001FD204600F01AF800F036F80020B5E7E0
:1020C0000085E2018033E101A66F00088051010024
:1020D00000B50246FFF722FE100C03490880091DD7
:1020E0000A80FFF725FE00BD2028004000B502460B
:1020F000FFF714FE100C03490880091D0A80FFF742
:1021000017FE00BD1828004000B50246FFF706FE86
:10211000C2F3034003490880091D0A80FFF708FE47
:1021200000BD00000828004000BF0348008800F000
:1021300020000028F9D07047042800400748008894
:102140004FF6F77108400549088000BF0348008832
:1021500000F008000028F9D0704700000428004073
:1021600030B503460C461546002207E0184600F03D
:1021700008F824F812009B1C501C82B2AA42F5DB1E
:1021800030BD0146088870472DE9F05F80468A46D9
:102190001746B8F1006F02D33348804501D3BDE83C
:1021A000F09FFEF795FFA8F1006B4FEA9B25CBF35C
:1021B0004809C9F50074A74200DC3C464EE04FF0E8
:1021C000006101EB85208A142849FFF7C9FF00262A
:1021D0000BE009EB0600254931F810004FF6FF71BE
:1021E000884200D003E0701C86B2A642F1DB00BF3B
:1021F000A6421BDA4FF0006101EB8520FEF7FEFEE0
:10220000002608E03AF8160006EB0901174A22F802
:102210001100701C86B2A642F4DB4FF0006101EBA6
:1022200085208A14114900F023F804E02246514623
:10223000404600F01DF8A74200D110E06D1C4FF0A1
:1022400000090AEB440A08EB4408381B87B2B7F5CB
:10225000007F02DD4FF4007400E03C46AFE700BFB2
:10226000FEF70CFF00BF9AE700000108C60000203F
:102270002DE9F04105460E461746002407E036F8E2
:1022800014102846FEF704FFAD1C601C84B2BC424B
:10229000F5DBBDE8F081704710B50246002000BFB5
:1022A0000BE000BF064B1B8803F08003002BF9D026
:1022B0000B5C034C241D2380401C9042F1DB10BDBD
:1022C0000044004010B500F001F810BD0CB500202E
:1022D000019000903348006840F480303149086034
:1022E00000BF3048006800F4003000900198401CA6
:1022F0000190009818B90198B0F5A06FF1D1294864
:10230000006800F4003010B10120009001E00020CE
:1023100000900098012843D12348006840F0100045
:10232000214908600846006820F00300086008465C
:10233000006840F0020008601A4840681949486087
:102340000846406848600846406840F4806048603D
:102350000846406820F47C1048600846406840F415
:10236000E81048600846006840F08070086000BFD0
:102370000C48006800F000700028F9D00948406857
:1023800020F00300074948600846406840F002001A
:10239000486000BF0348406800F00C000828F9D1ED
:1023A0000CBD00000010024000200240042808D1AB
:1023B0004FF0E021096941F004014FF0E022116182
:1023C00007E04FF0E021096921F004014FF0E0221D
:1023D000116170477047000010B51348006840F065
:1023E00001001149086008464068104908400E493C
:1023F0004860084600680E4908400B4908600846D6
:10240000006820F4802008600846406820F4FE0040
:1024100048604FF41F008860FFF754FF4FF00060E2
:102420000449086010BD0000001002400000FFF8E1
:10243000FFFFF6FE08ED00E010B50121064800F0B0
:102440004EF840B10121044800F03AF80348007802
:10245000401C0249087010BD000400400400002028
:102460007FB505460C4601210220FFF737FBADF88A
:102470000850ADF804400020ADF80A00ADF80600A1
:1024800001A90E4800F046F8012211460B4800F061
:1024900037F81D208DF8000000208DF80100032082
:1024A0008DF8020001208DF803006846FFF7C0FA9E
:1024B0000121024800F007F87FBD00000004004041
:1024C000CA430282704721B1028842F001020280B1
:1024D00004E002884FF6FE731A400280704730B560
:1024E0000246002000230024158A05EA010395898D
:1024F00005EA010413B10CB1012000E0002030BD59
:102500001AB183890B43838102E083898B438381E2
:1025100070470000002202881D4B98420ED01D4BD0
:1025200098420BD0B0F1804F08D01B4B984205D099
:102530001A4B984202D01A4B984204D14FF68F732F
:102540001A404B881A43174B984207D0164B9842B3
:1025500004D04FF6FF431A40CB881A4302808B8881
:1025600083850B8803850A4B98420BD0094B984210
:1025700008D00E4B984205D00D4B984202D00D4B1F
:10258000984201D10B7A03860123838270470000B1
:10259000002C0140003401400004004000080040CD
:1025A000000C0040001000400014004000400140BA
:1025B00000440140004801407047000010B586B05B
:1025C0000446012144F20500FFF798FA4FF4007029
:1025D000ADF8140003208DF8160018208DF81700B0
:1025E00005A91C48FEF7B4FD4FF48060ADF8140057
:1025F00048208DF8170005A91648FEF7A9FD2520EB
:102600008DF8000001208DF801008DF802008DF892
:1026100003006846FFF70CFA01940020ADF80800AB
:10262000ADF80A00ADF80C00ADF810000C20ADF8C4
:102630000E0001A9084800F063FA002240F225517B
:10264000054800F038FA0121034800F0F1F906B01E
:1026500010BD000000080140003801402DE9F041A4
:1026600092B0A9A000681190A8A000681090A8A03E
:1026700000680F90A7A000680E90A7A000680D90BA
:10268000A6A000680C90A6A000680B90A5A000680A
:102690000A90A5A000680990A4A000680890A4A0D2
:1026A00000680790A3A000680690A3A103C9CDE924
:1026B00004010020019002900390012740F225516F
:1026C0009F4800F0CEF9002847D000209D490870AF
:1026D0009D49087001219D48FFF7F5FE984800F0DC
:1026E0007BFAC6B29A489B49096846540078042888
:1026F00033D198480068032828DB002095490860FA
:1027000093484078402818D191488078062814D101
:102710000120914908609149C1F89C0100208E492F
:10272000091D08604FF47A7001F0E2F801208B492E
:10273000C1F89C01502001F0DBF8002503E00020E7
:10274000834948556D1C042DF9DB0027012F04D166
:1027500080480068401C7F4908607D480078072851
:1027600074D17C480068062871DB00207949086034
:102770007748807967286BD17548C0788DF8460016
:10278000734880788DF84700022001F0B1F8744951
:1027900074480068FDF790FD8046FDF793FF00B296
:1027A000714908806E4971480068FDF785FD8046D3
:1027B000FDF788FF00B26E49088069496D480068DE
:1027C000FDF77AFD8046FDF77DFF00B26A4908807B
:1027D000654840788DF81100634800788DF8120044
:1027E000634840788DF81300614800788DF8140034
:1027F000084640788DF81500084600788DF81600D8
:102800000A208DF84400002404E011A8005D01A90D
:102810000855641C042CF8DB002405E004A8015DC5
:1028200001AA201D1154641C072CF7DB002404E0CE
:1028300001A8005D51490855641C0B2CF8DB0B22E4
:102840004E494F48FFF7A0FC002408E058E04CE058
:1028500017E0002001A9085548490855641C0B2CB5
:10286000F7DB142001F044F811A90420FFF714FD50
:1028700004A90720FFF710FD40214248FEF747FD5D
:1028800027E033488079682823D10E208DF8440052
:102890002F48C0788DF846002D4880788DF8470085
:1028A0000B2236493648FFF75BFC002404E033482E
:1028B000005D01A90855641C0B2CF8DB142001F005
:1028C00017F811A90420FFF7E7FC01A90B20FFF777
:1028D000E3FC00202C490870002503E000201C497F
:1028E00048556D1C102DF9DB0027012F08D1194820
:1028F0000068401C1749086040212248FEF705FD8A
:1029000012B0BDE8F081000006C20000E0554500AD
:10291000E0888800E4888800E500E500E5E6CB0073
:10292000123456006400000061006100650065001B
:102930006600660066666600670000000000000032
:102940000044004004000020060000200004004075
:10295000A4050020840000209881214200802142AB
:102960000000204108000020720000200C00002020
:102970007400002010000020760000208E0500204A
:1029800000800008000C01408200002010B586B0D5
:10299000044601210520FFF7B1F801214804FFF7A3
:1029A0009DF80420ADF8140003208DF816001820BF
:1029B0008DF8170005A91C48FEF7CAFB0820ADF8E2
:1029C000140048208DF8170005A91748FEF7C0FB32
:1029D00026208DF8000002208DF801008DF80200FD
:1029E00001208DF803006846FFF722F801940020CB
:1029F000ADF80800ADF80A00ADF80C00ADF8100015
:102A00000C20ADF80E0001A9084800F079F800226A
:102A100040F22551054800F04EF80121034800F02E
:102A200007F806B010BD0000000801400044004057
:102A300021B1828942F40052828104E082894DF6FC
:102A4000FF731A408281704702460020B1F5007F73
:102A500000D100BF13880B400BB1012000E0002023
:102A6000704770B50246002400230025002040F680
:102A70006A16B14200D100BFC1F3421501F01F0335
:102A8000012606FA03F3012D02D19689334006E0B0
:102A9000022D02D1168A334001E0968A33400C128F
:102AA000012606FA04F41688344013B10CB1012053
:102AB00000E0002070BDF0B503460024002600258C
:102AC000002040F66A17B94200D100BF1846C1F392
:102AD000421401F01F06012707FA06F5012C01D167
:102AE0000C3004E0022C01D1103000E014301AB197
:102AF00007682F43076002E00768AF430760F0BD37
:102B00002DE9F04786B005460E460024A24600BFD8
:102B1000A1460027B08900B100BF2F462C8A4CF691
:102B2000FF700440F08804432C82AC894EF6F31009
:102B30000440B08831890843718908430443AC815B
:102B4000AC8A4FF6FF400440B0890443AC8201A830
:102B5000FEF7FAFF1F48874202D1DDF810A001E01E
:102B6000DDF80CA0A88900F4004040B10AEBCA00CF
:102B700000EB0A1031684900B0FBF1F807E00AEBFE
:102B8000CA0000EB0A1031688900B0FBF1F864203C
:102B9000B8FBF0F004012009642101FB1089A88929
:102BA00000F4004040B1322000EBC900B0FBF1F06E
:102BB00000F00700044308E0322000EB0910642114
:102BC000B0FBF1F000F00F0004432C8106B0BDE82B
:102BD000F08700000038014001468888C0F30800F3
:102BE000704700BFFEE700000FB4054B10B503A906
:102BF000044A029800F09AF810BC5DF814FB00003B
:102C00003D4500086C000020490050EAC12018BF73
:102C100004204A0D18BF40F0010040F2FF72B2EBF1
:102C2000515F08BF40F00200012808BF052070472F
:102C30002DE9F0414F1E00EBC7010446D1E9000128
:102C400015461E4637F006020DD02A463346FDF7DC
:102C50004AFC7F1E04EBC703D3E90023FDF79CFB6E
:102C600037F00602F1D1022F25D0042F13D0062F02
:102C700018BFBDE8F0812A463346FDF734FCD4E99D
:102C80000A23FDF789FB2A463346FDF72CFCD4E9DD
:102C90000823FDF781FB2A463346FDF724FCD4E9DF
:102CA0000623FDF779FB2A463346FDF71CFCD4E9E1
:102CB0000423FDF771FB2A463346FDF714FCD4E9E3
:102CC0000223FDF769FB2A463346FDF70CFCD4E9E5
:102CD0000023BDE8F041FDF75FBB0122FDF778BEA0
:102CE000FDF75ABB0022134610461146FDF76DBC96
:102CF000024A00201107FDF76BBE000001FDFFFF37
:102D000002E008C8121F08C1002AFAD170477047B4
:102D1000002001E001C1121F002AFBD17047000012
:102D200001490860704700009C0000202DE9FF4F1A
:102D30008DB00F460546002606E025280BD0DDE9BC
:102D40000F1290476D1C761C28780028F5D111B021
:102D50003046BDE8F08F0024A246A1460122EC498E
:102D600000E0044315F8013F203B02FA03F008425B
:102D7000F7D128782A2810D06FF02F022878A0F1F8
:102D80003001092914D80AEB8A0102EB410144F011
:102D9000020400EB010A6D1CF0E701CF5FEA000AB4
:102DA00003D544F40054CAF1000A44F002046D1C37
:102DB00028782E2817D115F8010F44F004042A288A
:102DC0000ED06FF02F022878A0F1300109290AD81F
:102DD00009EB890102EB410100EB01096D1CF2E7EF
:102DE00057F8049B6D1C28786C280FD006DC4C2803
:102DF00017D068280DD06A2814D104E0742810D0A8
:102E00007A280FD10DE044F400140AE044F4801451
:102E100001E044F440146978814202D104F5801441
:102E20006D1C6D1C2A786E2A1FD00CDC632A31D0F1
:102E300004DC002A8BD0582A11D1A3E0642A68D080
:102E4000692A0CD165E0732A2ED004DC6F2A73D076
:102E5000702A04D19BE0752A6FD0782A6ED0104674
:102E6000DDE90F129047761C50E1C4F302500228AE
:102E700006D0032809D0042801CF09D0066045E117
:102E800001CFF117C0E9006140E101CF06803DE1CB
:102E900006703BE117F8040B8DF8000000208DF858
:102EA0000100EB46012003E057F804BB4FF0FF3070
:102EB00061074FF0000102D40DE008F101018846DE
:102EC00049450FDA8045F8DB1BF808100029F4D1DA
:102ED00008E008F1010188468142FADB1BF808107E
:102EE0000029F6D1DDE90F23AAEB0800814621462F
:102EF00000F036F9304400EB080604E0DDE90F127B
:102F00001BF8010B9047B8F10108F7D2214648465B
:102F1000F7E00A21C4F302534FF0000B0891022B93
:102F200004D001CFC117032B09D00AE0FF1D27F001
:102F30000707F7E8020108E032E01FE020E000B2F6
:102F4000C117042B01D140B2C117031E71F1000358
:102F500007DA4FF0000CD0EB0C006CEB01012D23D5
:102F600002E0230504D52B238DF82430012303E050
:102F7000E30701D02023F7E7984658E00A2110E044
:102F800010210EE010204FF0000B08900CE01021F3
:102F90004FF0000B44F004044FF00809089103E0DF
:102FA00008214FF0000B0891C4F30253022B04D008
:102FB00001CF0021032B06D006E0FF1D27F00707F5
:102FC000F7E8020103E080B2042B00D1C0B24FF059
:102FD000000823072BD5702A07D0DDF820C08CF01D
:102FE000100C5CEA0B0C05D00EE040238DF8243069
:102FF000012308E050EA010306D030238DF8243085
:103000008DF8252002239846DDF820C08CF0080CAE
:103010005CEA0B0C0BD150EA010301D1630706D522
:1030200030238DF824304FF00108A9F10109582A06
:1030300004D038A20B9208AA0A920BE03AA2F9E750
:103040005B46089AFDF7DEFB0B9B9B5C0A9A521EBF
:103050000A92137050EA0102F2D10A98ADEB000017
:1030600000F1200B600702D524F4803401E04FF01A
:103070000109D94502DDA9EB0B0000E0002000EBBF
:103080000B0141440890AAEB010AE00306D4DDE9F4
:103090000F232146504600F063F806444FF0000924
:1030A00008E009A911F80900DDE90F12904709F1BC
:1030B0000109761CC145F4DBE0030CD5DDE90F23E3
:1030C0002146504600F04CF8064404E0DDE90F12BA
:1030D00030209047761C0899481E08900029F5DC9E
:1030E00008E00A980A990078491C0A91DDE90F1254
:1030F0009047761CBBF10001ABF1010BF1DC2146DE
:103100005046DDE90F2300F019F806446D1C1BE65C
:1031100009280100303132333435363738396162AD
:103120006364656600000000303132333435363771
:103130003839414243444546000000002DE9F04142
:10314000044600251E461746880404D405E0394687
:103150002020B0476D1C641EF9D52846BDE8F081DB
:103160002DE9F041044600251E469046C80301D5CE
:10317000302700E02027880404D505E04146384682
:10318000B0476D1C641EF9D52846BDE8F0810000EB
:103190002DE9FE4F06460F460025684601F0DCF992
:1031A000002442E056F8240057F82410A0EB010A4E
:1031B000BAF1000F01DB514601E0CAF100010846F7
:1031C000FDF772FA83464FF08F41FDF7A7F880466E
:1031D0005DF824000021FDF701FB16D05DF82410F6
:1031E0004046FDF79BF882464FF07E51FDF75EF8B2
:1031F000814629F0004A0F48416A5046FDF7F8FA27
:1032000012D20120A04005430EE00A48C1694046A1
:10321000FDF7E4FA05D30748016A4046FDF7E8FAEE
:1032200002D20120A0400543641C032CBADB2846CF
:10323000BDE8FE8F7C6300082DE9F04D8D4F21F035
:10324000004A86B005460C46BA452ADBAAEB0700C1
:1032500028430AD08848824501DC1AD1CDB106B096
:103260002846BDE8F04DFFF738BD844A844B284618
:10327000FDF739F907460E46824A834B2846214618
:10328000FDF731F906B03A463346BDE8F04DFDF79B
:1032900083B80120FFF744FD06B0BDE8F04DFFF70D
:1032A00021BD7A48824542DABAF1795F0BDA2846C5
:1032B000FFF7AAFC042808BFFFF71AFD284606B04E
:1032C0002146BDE8F08D2A460B461046FDF70BF966
:1032D000834602466E480E460B4606217844FFF7A9
:1032E000A7FC5A463346FDF7FEF8804669488A46F1
:1032F0005A46334604217844FFF79AFC5A4633462F
:10330000FDF7F1F800223B46FDF746F802460B4672
:1033100040465146FDF759F92A462346FDF7E3F8A2
:1033200006B02A462346BDE8F04DFDF735B82846DD
:1033300024F0004100223D463B46FDF7D1F84FF016
:10334000FF32FDF745FB0646024653480F460B4643
:1033500006217844FFF76CFC32463B46FDF7C3F884
:10336000CDE900014D4832463B4604217844FFF741
:103370005FFC32463B46FDF7B6F800222B46FDF7D0
:103380000BF8834602913046394602F0BDFF804675
:1033900043480D46504517DCDDE900015A46029BC3
:1033A000FDF713F942462B46FDF79DF842462B46A2
:1033B000FCF7F2FF0122FDF70BFB304A304BFDF723
:1033C0008CF8304A304B4CE04FF0000A52460B4626
:1033D0004046FCF7E1FFCDE9031052462B4610466C
:1033E0001946FDF780F832463B46FDF779F8DDE9EE
:1033F0000332FDF7EAF806460F46DDE900015A46BA
:10340000029BFDF7E2F883460091012230463946DF
:10341000FDF7DEFA194A1A4BFDF762F806460F4629
:10342000012240462946FDF7D3FA5A46009BFDF794
:103430005AF832463B46FDF750F806460F46012241
:1034400050462946FDF7C4FA0E4DDFF858802A464B
:103450004346FDF745F832463B46FDF741F82A461C
:103460004346FDF73DF8002CD8BF81F0004106B07F
:10347000BDE8F08D0000F03F0000F07F075C1433E2
:1034800026A6913C182D4454FB21F93F0000E03F53
:10349000D83C0000EE3C0000623C0000783C00009C
:1034A0003333EF3FFB21E93F2DE9F84F04460D464A
:1034B00021F0004000917349814211DC7249884239
:1034C00001DC06D12CB120462946BDE8F84FFFF7B4
:1034D00004BC6E48002DCCBF6D496E49BDE8F88F25
:1034E0006D49814211DD6D498142D8BF4FF0FF36F1
:1034F0006DDD20462946FFF787FB042808BFFFF74C
:10350000F7FB20462946BDE8F88F6549654F25F051
:103510000045814233DD6449814219DD002632468F
:103520004FF0804320462946FCF736FF80468A4606
:10353000012220462946FDF74BFA00223B46FCF7C4
:10354000CCFF42465346FDF740F804460D463EE0A8
:1035500001260022BA463B4620462946FCF71CFFBE
:1035600080460F460022534620462946FCF7B5FF09
:1035700042463B46FDF729F804460D4627E04B49F5
:1035800081421BDDDFF828A1022600225346204697
:103590002946FCF7A8FF00223B46FCF7FDFE8046CB
:1035A0000F460022534620462946FCF796FF424626
:1035B0003B46FDF70AF804460D4608E0032622467E
:1035C0002B4600203B49FDF700F804460D462246F5
:1035D0002B4610461946FCF786FF8B46824602466C
:1035E0000B46FCF780FF07460246334888460B46E9
:1035F00006217844FFF71CFB52465B46FCF773FF3D
:1036000082462E488B463A46434605217844FFF7CA
:103610000FFB3A464346FCF766FF02460B46002E78
:10362000504659460CDAFCF7B7FE22462B46FCF70B
:103630005AFF01B022462B46BDE8F04FFCF750BFC1
:10364000FCF7AAFE22462B46FCF74DFF1C4A7A44A3
:1036500002EBC603D3E90023FCF73FFF22462B46CB
:10366000FCF73BFF174A7A4402EBC603D3E9002379
:10367000FCF736FF009A002AB8BF81F00041BDE890
:10368000F88F0000000010440000F07F182D445413
:10369000FB21F93FFB21F9BF0000DC3F0000203E89
:1036A0000000F33F0000F03F0000E63F00800340D1
:1036B0000000F83F0000F0BF7A3A0000383A0000FE
:1036C000D63900009E3900002DE9F04D9446CCF12A
:1036D000000423F000464CEA0404524F46EAD47436
:1036E0009A46884621F00042BC4206D8454240EA4C
:1036F000050442EAD474BC4204D9BDE8F04D6246E8
:10370000FFF7EEBAAAF14055A5F17F6555EA0C0422
:103710000BD0022404EAAA74434DDFF810E144EA16
:10372000D87452EA000B04D00CE0BDE8F04DFFF76E
:10373000BBBE002C14BF012CBDE8F08D022C30D094
:10374000032C32D056EA0C0B0AD0BE4220D1BA422A
:1037500009D126F0804622F080423346114617E018
:1037600000291ADB25E0DFF8C8B0FB44002C04BFB9
:10377000DBE90001BDE8F08D012C02BFDBE90001AF
:1037800081F00041BDE8F08D022C0AD0032C0CD052
:10379000BA4212D1B8F1000F0BDA23482549BDE82F
:1037A000F08D28462449BDE8F08D28467146BDE8D5
:1037B000F08D1D482149BDE8F08D921B12153C2A61
:1037C000C4BF19481D490EDCBAF1000FBEBF12F18B
:1037D0003C0F0020014606DB6246FCF7F6FE21F0B6
:1037E0000041FFF761FE002C08BFBDE8F08D012C01
:1037F00004BF81F00041BDE8F08D114A114B022C4D
:1038000007D0FCF76AFE2A46BDE8F04D0A4BFCF7EC
:1038100064BEFCF762FE2A46BDE8F04D064BFCF79D
:103820005FBE00000000F07F182D4454FB2109C04A
:1038300032390000FB21F9BFFB210940FB21F93F90
:10384000075C143326A6A13C2DE9F0410446E0783C
:1038500000F0C006E07800F03F05607800F001005D
:1038600098B1EF102846E91705EB5171C910A5EB87
:10387000C101491C01F0FF080B48006820B10A484B
:10388000414602683846904700BF607800F0080063
:1038900030B10548406818B1B011034A51688847F3
:1038A0000020BDE8F0810000AC00002010B56FF0F2
:1038B0000400FEF77BFD0A4800680A49B0FBF1F0FE
:1038C000094908700846007800EB4001C1EBC010C0
:1038D0004FF6FF7101EAC0000449088010BD0000E6
:1038E0001C00002000127A00680000206A000020FE
:1038F0000146114A12884A434FF0E0235A610022E0
:103900009A611A46126942F001021A6100BF4FF033
:10391000E022106900F001021AB100F48032002A9E
:10392000F5D04FF0E022126922F001024FF0E023BF
:103930001A6100229A6170476A0000200146114A0C
:1039400012784A434FF0E0235A6100229A611A46E6
:10395000126942F001021A6100BF4FF0E0221069C3
:1039600000F001021AB100F48032002AF5D04FF0C5
:10397000E022126922F001024FF0E0231A610022D6
:103980009A6170476800002038B5044664B1202071
:103990008DF8000028208DF8010030208DF80200FD
:1039A00038208DF8030004E0A32204216846FCF7C8
:1039B0000CFC6A46042140F69E2002F0D3FB01F085
:1039C000BDFF38BD3EB5044602208DF80000CA2078
:1039D0008DF80100E3208DF8020009208DF8030026
:1039E0006A460421682002F0BDFBA3208DF8000088
:1039F00004F0400048B1C0208DF80100C8208DF8C7
:103A00000200C2208DF8030006E0A3208DF801001B
:103A10008DF802008DF8030004F4C07048B1C42092
:103A20008DF80400CC208DF80500C6208DF8060026
:103A300006E0A3208DF804008DF805008DF806003F
:103A4000A3208DF807008DF808008DF809006A465C
:103A50000A2140F6A72002F085FB04F0030018B10C
:103A600020208DF8000002E0D8208DF800006A4682
:103A7000012140F6B62002F075FB04F0200018B1D9
:103A8000012000F0ADF802E0002000F0A9F804F4F5
:103A9000C07008B304F4807060B1B2208DF80000EB
:103AA0008B208DF80100B6208DF802009B208DF848
:103AB00003000BE0B0208DF8000080208DF801009D
:103AC000B4208DF8020090208DF803006A4604218E
:103AD00040F6A22002F046FB04F0010020B3F820DB
:103AE0008DF800006A4601214FF40B6002F03AFBAA
:103AF000FA21072000F02CFC072000F0F3FB012046
:103B000000F013FC642000F0F3FC4FF4FA7000F0B6
:103B100002FDC821304800F0A3FB282000F0BCFBC8
:103B20000A2000F0CCFB08E0D8208DF800006A469F
:103B300001214FF40B6002F015FB04F0020018B1F4
:103B4000D9208DF8000002E0D8208DF800006A46E8
:103B5000012140F23D7002F005FB04F0040018B1B1
:103B6000012000F069F802E0002000F065F804F0A0
:103B7000100018B10120FFF707FF02E00020FFF757
:103B800003FF44F008001549488101F0D7FE0020EA
:103B90001249887304F0400018B10846807B801DEC
:103BA000887304F4C07020B10C48807B801D0B49E1
:103BB000887304F0140020B10848807B1030074956
:103BC000887304F0030020B10448807B001D034982
:103BD000887300203EBD000009E3CA02AC0000204B
:103BE0003EB504466CB10EA1D1E900208968CDE94B
:103BF000002002916A4609214FF4976002F0B2FA60
:103C00003EBD0AA2D2E900109268CDE901020091FE
:103C10006A4609214FF4976002F0A4FAF0E7000029
:103C2000B8AAB38DB4980D355D000000B8AAAAAA51
:103C3000B088C3C5C700000038B5044664B1C020D1
:103C40008DF80000C2208DF80100C4208DF802001C
:103C5000C6208DF8030004E08B2204216846FCF79F
:103C6000B4FA6A46042140F6982002F07BFA01F08B
:103C700065FE38BD10B5C8234FF48062024940F696
:103C8000F63001F0EFFC10BDA46300082DE9F04F01
:103C90008DB00746884615469946DDE9166B002427
:103CA000002030806B49887B5A4605A901F0A6FDAB
:103CB00018B1601E0DB0BDE8F08F6648807A00F044
:103CC0001400002867D09DF8140000069DF8151018
:103CD00040EA01409DF8161040EA01209DF81710B7
:103CE000084328609DF8180000069DF8191040EA66
:103CF00001409DF81A1040EA01209DF81B1008436E
:103D000068609DF81C0000069DF81D1040EA014007
:103D10009DF81E1040EA01209DF81F100843A8607E
:103D20009DF8200000069DF8211040EA01409DF812
:103D3000221040EA01209DF823100843E86004F1B6
:103D40001000C4B228680014019068680014029042
:103D5000A86800140390E868001404900198404398
:103D6000029901FB0100039901FB0100049901FB89
:103D7000010ABAF1706F02DBBAF1885F05DD01F06C
:103D8000DDFD00203080401E94E7B6F9000040F4CD
:103D90008070308000BF2F48807A00F0400020B350
:103DA00005A9601C085C095D40EA012000B2A8F882
:103DB000000005A9E01C095C05AAA01C105C41EAF2
:103DC000002000B2A8F8020005A9601D095C201DB2
:103DD000105C41EA002000B2A8F80400A01DC4B2A3
:103DE000B6F9000040F0080030801A48408900F41D
:103DF000C07008B305A9601C085C095D40EA012099
:103E000000B2388005A9E01C095C05AAA01C105C62
:103E100041EA002000B2788005A9601D095C201DE0
:103E2000105C41EA002000B2B880A01DC4B2B6F90F
:103E3000000040F0700030800648807A00F00300F7
:103E400018B105A90819FFF7FFFC484601F09CF8D6
:103E500000202FE7AC00002070B588B0064601A80E
:103E600001F054FABDF804000021C90341EA5045AD
:103E7000C4034448007A00F0030056F8200005907F
:103E80004048007A00F0040010B1059840420590C7
:103E90003C48007AC0F3C10056F82000069039482B
:103EA000007A00F0200010B1069840420690354894
:103EB000007AC0F3811056F820000790314800893D
:103EC00000F4807010B10798404207900598C11720
:103ED000A0FB042301FB043100FB0510810041EA33
:103EE000927005900698C117A0FB042301FB0431D2
:103EF00000FB0510810041EA927006900798C117F7
:103F0000A0FB042301FB043100FB0510810041EA02
:103F1000927007900598000E8DF808000598000C27
:103F20008DF809000598000A8DF80A000598C0B2BE
:103F30008DF80B000698000E8DF80C000698000C0A
:103F40008DF80D000698000A8DF80E000698C0B294
:103F50008DF80F000798000E8DF810000798000CE0
:103F60008DF811000798000A8DF812000798C0B26A
:103F70008DF8130002AA0C214FF4257002F0F2F81C
:103F800008B070BDAC00002030B585B0044616A264
:103F900007CA02AB07C3C82C03DD4FF0FF3005B0E2
:103FA00030BDC82090FBF4F0401E85B2280A8DF881
:103FB0000000E8B28DF801006A46022140F21620A6
:103FC00002F0D0F810B14FF0FF30E8E702AA0C2160
:103FD00040F6C12002F0C6F810B14FF0FF30DEE726
:103FE000044884810020DAE7FEF2ABC4AAF1DFDFE7
:103FF000BBAFDFDFAC0000201FB504464848007AA5
:1040000000F0030054F8200001904548007A00F0C9
:10401000040010B10198404201904148007AC0F379
:10402000C10054F8200002903D48007A00F02000C2
:1040300010B10298404202903948007AC0F38110D2
:1040400054F8200003903648008900F4807010B1C5
:104050000398404203903349019880FB0101800F8F
:1040600040EA810001902F49029880FB01108200F4
:1040700042EA917002902B49039880FB0110820064
:1040800042EA917003900198000E8DF800000198AB
:10409000000C8DF801000198000A8DF802000198CB
:1040A000C0B28DF803006A4604214FF4747002F028
:1040B00059F818B14FF0FF3004B010BD0298000E4F
:1040C0008DF800000298000C8DF801000298000A9B
:1040D0008DF802000298C0B28DF803006A460421F0
:1040E0004FF4757002F03EF810B14FF0FF30E3E787
:1040F0000398000E8DF800000398000C8DF8010065
:104100000398000A8DF802000398C0B28DF80300EE
:104110006A4604214FF4767002F024F8CCE70000E0
:10412000AC00002009E3CA0210B586B0044647A0DF
:104130000068039046A00068029046A000680190C5
:1041400045A00068009004F0030003A9085C8DF806
:10415000140003A8C4F3C101405C8DF8150003A846
:10416000C4F38111405C8DF8160004F0030002A92D
:10417000085C8DF8100002A8C4F3C101405C8DF802
:10418000110002A8C4F38111405C8DF8120005AA49
:10419000032140F2264001F0E5FF18B14FF0FF3057
:1041A00006B010BD04AA032140F22A4001F0DAFF54
:1041B00010B14FF0FF30F3E701980590009804909C
:1041C00004F0040058B19DF8140040F001008DF88F
:1041D00014009DF8100040F001008DF8100004F06C
:1041E000200058B19DF8150040F001008DF8150031
:1041F0009DF8110040F001008DF8110004F480706A
:1042000058B19DF8160040F001008DF816009DF899
:10421000120040F001008DF8120005AA03214FF4AE
:10422000886001F09FFF10B14FF0FF30B8E704AA9B
:10423000032140F2314001F095FF10B14FF0FF3003
:10424000AEE7064804810020AAE700004CCD6C00D0
:104250000CC92C003656760026466600AC000020BD
:10426000F8B505460E464FF47A7095FBF0F000FB6A
:1042700006F4200E8DF80000200C8DF80100200AB5
:104280008DF80200E0B28DF803006A4604214FF475
:10429000AE7001F067FFF8BD38B50446052094FB09
:1042A000F0F084B220128DF80000E0B28DF8010029
:1042B0006A4602214FF4AD7001F054FF38BD38B5A5
:1042C0000446052094FBF0F084B220128DF8000023
:1042D000E0B28DF801006A4602214FF4AC7001F0A3
:1042E00041FF38BD38B504460020009004F00100BD
:1042F00020B19DF8000040F03000009004F0020072
:1043000020B19DF8000040F00C00009004F0040083
:1043100020B19DF8000040F0030000906A460121A2
:104320004FF4A47001F01EFF38BD38B50446012CCF
:1043300001DA012402E0042C00DD0424601EC0B276
:1043400000906A46012140F24F1001F00BFF38BD8A
:104350002DE9FC4706460F4606F0070010B1B7F5F9
:10436000C86F03DD4FF0FF30BDE8FC873846FCF72F
:10437000A4F981465949FBF7D1FF8046684600F011
:104380009FFF9DF80000022806D0042816D00828B8
:1043900026D0102848D135E04FF08D414046FBF73C
:1043A0008BFF8146FCF7A7F984B24D494046FBF7E5
:1043B00083FF8146FCF79FF985B238E04FF08C41CE
:1043C0004046FBF779FF8146FCF795F984B24549F1
:1043D0004046FBF771FF8146FCF78DF985B226E078
:1043E0004FF08B414046FBF767FF8146FCF783F9AE
:1043F00084B23D494046FBF75FFF8146FCF77BF9FD
:1044000085B214E04FF08A414046FBF755FF8146E4
:10441000FCF771F984B235494046FBF74DFF814600
:10442000FCF769F985B202E04FF0FF309CE700BF6E
:1044300020128DF80400E0B28DF8050028128DF8E6
:104440000600E8B28DF8070006F00100A0B101AA4D
:1044500002214FF4EA7001F085FE10B14FF0FF30F9
:1044600082E70DF1060202214FF4927001F07AFE0C
:1044700010B14FF0FF3077E706F00200A0B101AABB
:1044800002214FF4EC7001F06DFE10B14FF0FF30DF
:104490006AE70DF1060202214FF4947001F062FE0A
:1044A00010B14FF0FF305FE706F00400A0B101AAA1
:1044B00002214FF4EE7001F055FE10B14FF0FF30C5
:1044C00052E70DF1060202214FF4967001F04AFE08
:1044D00010B14FF0FF3047E7002045E700004843A8
:1044E000000040460000C045000040450000C044B8
:1044F00038B50446052094FBF0F085B228128DF8FB
:104500000000E8B28DF801006A4602214FF4EF7016
:1045100001F028FE38BD38B50446052094FBF0F0C4
:1045200085B228128DF80000E8B28DF801006A46C5
:1045300002214FF4ED7001F015FE38BD00BF054AB1
:10454000128802F04002002AF9D0C2B2014B1B1DB2
:104550001A807047003801407CB5054628494968F3
:10456000087801AB04220D21FDF788F908B1072076
:104570007CBD9DF80700C0F301109DF8041001F008
:10458000E00140EAE1008DF800009DF80700C0F36B
:1045900081009DF8051001F0E00140EAE1008DF88E
:1045A00001009DF8070000F003009DF8061001F0DF
:1045B000E00140EAE1008DF8020000241CE01DF853
:1045C000040018B9002045F8240013E00D4845F810
:1045D000240006E055F824000B49FBF76DFE45F872
:1045E00024001DF80400401EC0B20DF8040000288D
:1045F000F0D100BF601CC4B2032CE0DB0020B7E7A1
:10460000300000207B14AE3E1D5A843F2DE9F04F50
:1046100087B005460C46914601208DF81000002019
:104620008DF81100FE4A1268917CFD4A526810789C
:1046300004AB0222FDF7C8F920B14FF0FF3007B0FC
:10464000BDE8F08FC820FFF753F900208DF8100067
:10465000F34A1268D17BF24A5268107804AB012207
:10466000FDF7B2F910B14FF0FF30E8E7EC4A1268FD
:104670005179EB4A5268107804AB0122FDF7A4F996
:1046800010B14FF0FF30DAE7E54A1268917CE44A56
:104690005268107804AB0122FDF796F910B14FF083
:1046A000FF30CCE7DE4A1268D17DDD4A52681078CF
:1046B00004AB0122FDF788F910B14FF0FF30BEE7DF
:1046C000D74A12681179D64A5268107804AB012291
:1046D000FDF77AF910B14FF0FF30B0E70C208DF8FC
:1046E0001000CF4A12681179CD4A5268107804AB95
:1046F0000122FDF769F910B14FF0FF309FE70F205D
:10470000FFF7F6F8C648806A407A8DF81000C44A70
:1047100012689178C24A5268107804AB0122FDF702
:1047200053F910B14FF0FF3089E7BD48806A007A35
:104730008DF81000BA4A12685178B94A5268107858
:1047400004AB0122FDF740F910B14FF0FF3076E7DE
:10475000B9F1000F07D0B248806A807A40F0E000DB
:104760008DF8100004E0AE48806A807A8DF8100061
:10477000AB4A12689179AA4A5268107804AB0122B8
:10478000FDF722F910B14FF0FF3058E7B9F1000FF3
:1047900007D0A348806AC07A40F0E0008DF810008E
:1047A00003E0A048C07A8DF810009D4A1268D179C4
:1047B0009B4A5268107804AB0122FDF705F910B14D
:1047C0004FF0FF303BE7B9F1000F02D0C820FFF7F0
:1047D0008FF840208DF81000914A12681179904AA4
:1047E0005268107804AB0122FDF7EEF810B14FF0DB
:1047F000FF3024E778208DF81000894A126851793B
:10480000874A5268107804AB0122FDF7DDF810B139
:104810004FF0FF3013E783498889FFF769F80020DC
:104820008DF810007E4A126851797D4A52681078DE
:1048300004AB0122FDF7C8F810B14FF0FF30FEE6DF
:10484000774A1268917A764A5268107804AB02224D
:10485000FDF714F810B14FF0FF30F0E69DF81100AD
:104860009DF8101040EA012B0C209BFBF0F0C6B223
:104870000020A86068602860A060606020608246B8
:1048800065E0674A1268D17A654A5268107804ABCD
:104890000C22FCF7F3FF10B14FF0FF30CFE69DF88C
:1048A00011009DF8101040EA012000B2ADF8080098
:1048B0009DF813009DF8121040EA012000B2ADF8F7
:1048C0000A009DF815009DF8141040EA012000B27E
:1048D000ADF80C00BDF90810206808442060BDF94F
:1048E0000A10606808446060BDF90C10A0680844B4
:1048F000A0609DF817009DF8161040EA012000B254
:10490000ADF800009DF819009DF8181040EA01204C
:1049100000B2ADF802009DF81B009DF81A1040EAA5
:10492000012000B2ADF80400BDF900102868084469
:104930002860BDF90210686808446860BDF9041079
:10494000A8680844A8600AF1010000F0FF0AB24517
:1049500097DB3448D0F800C02868C117090441EA41
:1049600010410704624600233846FBF7FDFB324640
:104970000023CDE90201FBF7F7FB28602948D0F8B6
:1049800000C06868C117090441EA10410704624683
:1049900000233846FBF7E8FB32460023CDE902014D
:1049A000FBF7E2FB68601F48D0F800C0A868C11799
:1049B000090441EA10410704624600233846FBF728
:1049C000D3FB32460023CDE90201FBF7CDFBA86003
:1049D0001448D0F804C02168C817000440EA114800
:1049E0000F046246002338464146FBF7BDFB3246C2
:1049F0000023CDE90201FBF7B7FB20600948D0F89E
:104A000004C06068C117090441EA10410704624606
:104A100000233846FBF7A8FB3246002304E00000E1
:104A2000300000207C630008CDE90201FBF79CFB0D
:104A300060601148D0F804C0A068C117090441EAB9
:104A400010410704624600233846FBF78DFB3246CF
:104A50000023CDE90201FBF787FBA060A0680028D6
:104A600004DDA068A0F58030A06003E0A06800F538
:104A70008030A0600020E2E57C6300082DE9FC5F47
:104A800006460F4600253D494968087801AB0322D8
:104A90000D21FCF7F3FE10B10720BDE8FC9F9DF847
:104AA000040000F01F008DF804009DF8050000F0E0
:104AB0001F008DF805009DF8060000F01F008DF81E
:104AC0000600002456E056F8240057F82410A0EB06
:104AD000010BBBF1000F01DB594601E0CBF10001F6
:104AE0000846FBF7E1FD4FF08F410090FBF716FC05
:104AF000814601A8005D68B321490868FBF7DDFD28
:104B0000834659461F48FBF709FC804604E01E49CE
:104B10004046FBF7D1FB804601A8005D401EC0B2B5
:104B200001A908550028F2D141464846FBF7F6FB9B
:104B300083464FF07E51FBF7B9FB82462AF0004BCB
:104B40000F4881695846FBF753FE12D20120A0405E
:104B500005430EE00A4801694846FBF73FFE05D3CE
:104B6000074841694846FBF743FE02D20120A040B6
:104B70000543641C032CA6DB28468EE7300000208A
:104B80007C63000800B04C4554E3853F10B50446F3
:104B9000204600F00FF80346E01C00F00BF843EA53
:104BA000C00083B2A01D00F005F843EA801083B274
:104BB000184610BD014691F90020002A01DD0020B1
:104BC0001EE091F90020002A01DA042018E091F992
:104BD0000120002A01DD012012E091F90120002AC4
:104BE00001DA05200CE091F90220002A01DD022003
:104BF00006E091F90220002A01DA062000E00720F1
:104C0000704700008CB0C0A000680B9000BFBFA12F
:104C100003C9CDE90901BFA103C9CDE90701BFA1BE
:104C200003C9CDE905014FF0000B00BF00BF4FF4F1
:104C3000A060FCF735FF4FF4E130FDF7BFFC4FF407
:104C4000E130FDF7A3FEFEF731FEFCF70DFCFCF7AB
:104C5000DBFBFCF73DF8FCF729F9FCF78DF8FCF7D6
:104C6000ABFD00F0DDFAFDF77DF90020AD490860ED
:104C70000120AD49C1F89C0102E01420FEF738FE86
:104C800000F0CEFA0028F8D10120A6490860C8201B
:104C9000FEF72EFE0020A449C1F898015020FEF72F
:104CA00027FE01209F490860C820FEF721FE002052
:104CB0009D49C1F898015020FEF71AFE012099493C
:104CC0000860C820FEF714FE012240F225519748E3
:104CD000FDF7F1FE01209649086000209549087013
:104CE000954908704FF4FA70FEF702FE41F61F4135
:104CF00047F22F50FDF7B4FB00208A4908600B22D1
:104D00008E498F48FDF72CFAF1E08E480078142880
:104D100012DD00208B4908700120874908700020AF
:104D20000090034601221146019040F2E570FDF724
:104D30006BF90020844908707F48007801281AD157
:104D4000784908607849C1F89C0100217F48FDF747
:104D5000BAFB7D48007868B900201421034601227F
:104D6000CDE90010114640F2E570FCF76BFF012021
:104D70007549087030BF6420FEF7BAFDFCF7CAFA27
:104D800004900498FBF799FC0190FBF7C8FC0646D9
:104D90004FF066326E4BFBF7A6FB00226D4BCDE960
:104DA0000201FBF7A0FB044600226B4BFBF70DFC56
:104DB0008046FBF7F7FC694908605A486C38006880
:104DC00050BB00205F49087064480068FBF7A7FCEF
:104DD0000446634A634BFBF7CDFC18D25F4800687A
:104DE000FBF79DFC0446604A604BFBF7C3FC07D20F
:104DF00000204C49086001204B49C1F89C0146E065
:104E00000020484908604849C1F89C013FE0002063
:104E10004449091D08603AE050480068FBF77FFCF0
:104E20000446534A534BFBF78DFC29D24B4800688C
:104E3000FBF775FC04464FF066324F4BFBF782FCE4
:104E400003D200203A49086021E00120354908607A
:104E50005020FEF74DFD00203349C1F89C01502041
:104E6000FEF746FD01202F49091D08605020FEF77E
:104E70003FFD00202B49091D08600120086006E065
:104E800000202849086001202749C1F89C013B4ABD
:104E90003B493C4800F0B2F810B96420FEF728FD09
:104EA00020212248FDF7D0FD08B32048FDF794FEED
:104EB00000F0FF0ABAF1030F01D14FF0010BBBF173
:104EC000010F04D1BAF1430F01D14FF0020BBBF136
:104ED000020F04D1BAF1150F01D14FF0030BBBF152
:104EE000030F04D1BAF1000F01D100BF00E00CE7BD
:104EF00000BF6420FEF7FCFC012240F225510B4864
:104F0000FDF7D9FD00BFFEE702C000000000000071
:104F1000000088000CC200010000000006C2001062
:104F20000102030098812142008021420044004098
:104F3000980121426500002006000020A00000200A
:104F4000008000080400002007000020000400404A
:104F500066664A3F00002240000010401400002016
:104F6000F6285C8FC2F50E40C3F5285C8FC2104056
:104F7000D7A3703D0AD70D4066660A401000002096
:104F80000C000020080000207047000070B50446A7
:104F9000002624F00104184890F8240008B10020ED
:104FA00070BD1548807A10B94FF0FF30F8E712480D
:104FB000057C807A2040104908740846007CA04295
:104FC00002D04FF0FF3600E0002614B90A48007DF9
:104FD00018B1012001F050F902E0002001F04CF975
:104FE0003CB100F0ABFC20B1034805744FF0FF303A
:104FF000D6E73046D4E70000300000202DE9F04F1E
:1050000099B004460D4616464FF07E574FF0000803
:105010004FF000094FF0000A12A813A918AB0EAA0E
:10502000CDE9001014A916A8FEF730FE18B1012032
:1050300019B0BDE8F08FBDF84C0000F48070002876
:105040007ED00E98FBF730FB83464FF09D41FBF777
:1050500065F907460F98FBF727FB83464FF09D4104
:10506000FBF75CF980461098FBF71EFB83464FF078
:105070009D41FBF753F981461198FBF715FB8346D9
:105080004FF09D41FBF74AF9824639464FF0804088
:10509000FBF712F949460590FBF70EF941460790D8
:1050A0004FF04040FBF708F951460590FBF704F933
:1050B00006900799FBF7A8F88346FBF730FBCDE98C
:1050C0000801FEF7B9F84FF06632544BCDE90A01FA
:1050D000FBF709FACDE90C01FBF764FB20604946B8
:1050E0004FF08040FBF7E8F849460290FBF7E4F800
:1050F000414604904FF04040FBF7DEF841460290F5
:10510000FBF7DAF803900499FBF7D0F883464FF0E9
:105110007E51FBF779F80590FBF701FBCDE908011B
:1051200039464FF08040FBF7C7F841460390FBF744
:10513000C3F8494604904FF08040FBF7BDF800E00B
:1051400068E051460390FBF7B7F883460499FBF7F4
:105150005BF80590FBF7E3FACDE90601DDE90823EA
:10516000FEF7B2FA4FF066322C4BCDE90A01FBF79D
:10517000BAF9CDE90C01FBF715FB28605146504602
:10518000FBF79AF8494604904846FBF795F84146E4
:1051900003904046FBF790F8394601903846FBF7FC
:1051A0008BF800900199FBF72FF802900399FBF719
:1051B0007DF883460499FBF779F80590FBF7AFFA81
:1051C000CDE9080151463846FBF776F84946049088
:1051D0004046FBF771F803900499FBF715F84FF080
:1051E00080410590FBF768F88346FBF798FACDE914
:1051F0000601DDE90823FEF767FA4FF06632074B38
:10520000CDE90A01FBF76FF9CDE90C01FBF7CAFA0A
:10521000306001E002200BE7002009E766A64C4061
:1052200070B50024FCF7A8F900F024F9002840D15B
:10523000782000F02FFFC4B20CB1012070BD78209F
:10524000FFF7A4FEC4B20CB10220F7E7642000F01F
:10525000D3FEC4B20CB10320F0E7FEF70BFDC4B2DD
:105260000CB10420EAE71548FFF790FC0546FEF76D
:105270005BFFC4B20CB10520E0E740F27310FEF70B
:10528000A1FBC4B20CB10620D8E76420FEF77CFE77
:10529000C4B20CB10720D1E700F0A4FF04460CB162
:1052A0000820CBE7012000F0A3FDC4B21CB1092007
:1052B000C4E70A20C2E70020C0E700005C0000202D
:1052C00001461148407A30B1012807D0022808D0A1
:1052D00003280CD108E0022008700BE004200870BD
:1052E00008E00820087005E01020087002E04FF088
:1052F000FF30704700BF0448C07C18B108784006F2
:10530000000E08700020F4E730000020014613482A
:10531000407A30B1012808D002280AD0032810D1E1
:105320000BE04FF4804008800EE041F69C7008804E
:105330000AE04FF48050088006E04FF400600880D7
:1053400002E04FF0FF30704700BF0448C07C10B14E
:105350000888401008800020F5E700003000002099
:1053600001460248007C0870002070473000002091
:1053700001460F48007A30B1012807D0022809D031
:1053800003280FD10AE0FA2008800EE04FF4FA70EB
:1053900008800AE04FF47A70088006E04FF4FA6063
:1053A000088002E00020088000BF00BF0020704796
:1053B0003000002001460E48007A30B1012807D0A5
:1053C000022808D003280CD108E00A4808600BE046
:1053D0000948086008E00948086005E008480860D6
:1053E00002E04FF0FF30704700BF0020FBE70000F5
:1053F00030000020000003430000834233330342A7
:105400003333834101461248C07A082817D2DFE8B7
:1054100000F01704070A0D101318BC20088013E0D1
:105420006220088010E02A2008800DE01420088007
:105430000AE00A20088007E00520088004E000BF99
:1054400000BF0020088000BF00BF002070470000A0
:10545000300000200146064890F8240010B14FF0BB
:10546000FF3070470248C08908800020F9E700003B
:10547000300000201CB580208DF80000654A1268BD
:10548000917C644A526810786B460122FCF79CFAC2
:1054900010B14FF0FF301CBD6420FEF729FA002048
:1054A0008DF800005B4A1268917C5A4A5268107865
:1054B0006B460122FCF788FA10B14FF0FF30EAE7A3
:1054C000544A1268917D534A526810786B460622FE
:1054D000FCF7D4F910B14FF0FF30DCE79DF8050080
:1054E000C007400F9DF8031001F0010140EA4100A0
:1054F0009DF8011001F0010140EA010494B1012C72
:1055000003D101214348C17431E0022C03D10021B1
:105510004048C1742BE021463FA0FDF765FB4FF0EA
:10552000FF30B8E73B4A1268D1783A4A526810789F
:105530006B460122FCF7A2F910B14FF0FF30AAE749
:105540009DF8000000F00F042CB93D48FDF74CFB1E
:105550004FF0FF309FE7042C06D13AA0FDF744FB43
:1055600001212C48C17402E000212A48C174FF21A6
:1055700028488172FF2027490872FF21254841727F
:10558000C1724FF6FF71C181FF2101748174012145
:10559000017380F82210002180F8231041750175F5
:1055A0001630016041608160163880F8241080F860
:1055B0002510C1844FF4FA6000F062FC10B14FF086
:1055C000FF3068E7022000F02BFB10B14FF0FF30F6
:1055D00061E72A2000F0CEFC10B14FF0FF305AE70F
:1055E000322000F009FD10B14FF0FF3053E70020EA
:1055F000FFF7CCFC10B14FF0FF304CE7002000F07B
:1056000051FB10B14FF0FF3045E7002000F042FDA4
:10561000002040E730000020556E737570706F7287
:1056200074656420736F6674776172652070726F41
:1056300064756374207265762025642E0A0000006C
:10564000A870000848616C662073656E73697469A0
:1056500076697479207061727420666F756E642E3D
:105660000A0000002DE9F04385B005460E4690463D
:105670009946294890F8250020B14FF0FF3005B039
:10568000BDE8F08316B94FF0FF30F8E7002423E0BF
:10569000281B102801DD102000E0281B87B23219DA
:1056A0003946204600F05EFD10B14FF0FF30E6E7CE
:1056B00001AA3946204600F001F910B14FF0FF3041
:1056C000DDE730193A4601A9FAF791FD10B16FF004
:1056D0000100D4E7E01984B2AC42D9DB4FEA2820BC
:1056E0008DF8000008F0FF008DF801000A4A1268EA
:1056F000917E094A526810786B460222FCF764F9E1
:1057000010B14FF0FF30BAE70121034880F82510AF
:10571000A0F826900020B2E73000002038B50446FB
:10572000282C02DD4FF0FF3038BDDCB9002000F03E
:10573000EBFB00208DF8000007208DF801002E4AB9
:105740001268917C2C4A526810786B460222FCF752
:105750003BF910B14FF0FF30E6E700212648017514
:105760000020E1E7012000F0CFFB20208DF80000B1
:10577000012C06D100208DF80100052000F0FAFB75
:1057800017E0052C06DC01208DF80100052000F053
:10579000F1FB0EE0142C06DC02208DF801000A203B
:1057A00000F0E8FB05E003208DF80100142000F074
:1057B000E1FB9DF80100072101EB8010C0B28DF8DC
:1057C00001000D4A1268917C0B4A526810786B46B2
:1057D0000222FCF7F9F810B14FF0FF30A4E70821DE
:1057E0000548817200210173012101750020FFF736
:1057F000CDFB002098E7000030000020F8B50446FB
:105800000F4616462C4890F8240010B94FF0FF3090
:10581000F8BD2948807A10B94FF0FF30F8E7264AE2
:105820001268917A244A526810786B460222FCF77B
:1058300025F810B14FF0FF30EAE79DF801009DF820
:10584000001040EA0125A54203DA00203070401E16
:10585000DEE7194840684088B5EB600F17DD164A4F
:105860001268517C144A526810786B460122FCF78A
:1058700005F810B14FF0FF30CAE79DF8000000F0C6
:10588000100020B100F05AF86FF00100C0E7E2B25A
:10589000094B1B68D97A084B5B6818783B46FBF7C5
:1058A000EDFF10B14FF0FF30B2E795FBF4F0401E72
:1058B00030700020ACE7000030000020F8B504464E
:1058C0000D46164616B94FF0FF30F8BD1A48807ADB
:1058D00010B94FF0FF30F8E720128DF80000E0B269
:1058E0008DF801009DF80100284413494968498951
:1058F000884202DD4FF0FF30E7E70F4A1268117E61
:105900000D4A526810786B460222FCF75DF810B120
:105910004FF0FF30D9E7EAB2074B1B68597D064BC1
:105920005B6818783346FBF7A9FF10B14FF0FF30E2
:10593000CBE70020C9E700003000002008B5704820
:10594000807A10B94FF0FF3008BD002000906C4AFB
:105950001268D17B6A4A526810786B460122FCF7C4
:1059600033F810B14FF0FF30EEE7654A1268517915
:10597000634A526810786B460122FCF725F810B193
:105980004FF0FF30E0E75E4A126811795C4A5268D6
:1059900010786B460122FCF717F810B14FF0FF307A
:1059A000D2E7574890F82400002853D00C200090EC
:1059B000534A12681179524A526810786B46012294
:1059C000FCF702F810B14FF0FF30BDE73220FDF7D1
:1059D0008FFFC02000904A48807A00F0010020B17B
:1059E0009DF8000040F020000090454A12681179AF
:1059F000434A526810786B460122FBF7E5FF10B16D
:105A00004FF0FF30A0E73E48407C10B102200090EC
:105A100001E0002000903A4A1268D17B384A52686F
:105A200010786B460122FBF7CFFF10B14FF0FF302B
:105A30008AE700200090324A12685179304A526851
:105A400010786B460122FBF7BFFF002855D04FF0BE
:105A5000FF3079E704200090294A12681179284A1A
:105A6000526810786B460122FBF7AEFF10B14FF081
:105A7000FF3069E72248807C20B92148807A00F015
:105A8000010010B94020009001E0602000901C4A05
:105A9000126811791A4A526810786B460122FBF796
:105AA00093FF10B14FF0FF304EE73220FDF720FF9B
:105AB0001348407C10B10120009001E000200090CC
:105AC0000F4A1268D17B0E4A526810786B46012249
:105AD000FBF77AFF10B14FF0FF3035E7084A126844
