:020000040800F2
:10000000A809002045010008A90B0008290B0008D9
:10001000A50B0008E9020008B71400080000000062
:100020000000000000000000000000007F0E00083B
:100030000B03000800000000310C0008E90F000865
:100040005F0100085F0100085F0100085F01000810
:100050005F0100085F0100085F0100085F01000800
:100060005F0100085F0100085F0100085F010008F0
:100070005F0100085F0100085F0100085F010008E0
:100080005F0100085F0100085F0100085F010008D0
:100090005F0100085F0100085F0100085F010008C0
:1000A0005F0100085F0100085F0100085F010008B0
:1000B0005F0100085F0100085F0100085F010008A0
:1000C0005F0100085F0100085F0100085F01000890
:1000D0005F0100084D100008E51100085F010008ED
:1000E0005F0100085F0100085F0100085F01000870
:1000F0005F0100085F0100085F0100085F01000860
:100100005F0100085F0100085F0100085F0100084F
:100110005F0100085F0100085F0100085F0100083F
:100120005F0100085F0100085F0100085F0100082F
:10013000DFF80CD000F018F80048004769150008F7
:10014000A80900200648804706480047FEE7FEE76A
:10015000FEE7FEE7FEE7FEE7FEE7FEE7FEE7FEE777
:10016000ED0F000831010008064C074D06E0E0687D
:1001700040F0010394E8070098471034AC42F6D3EE
:10018000FFF7DAFF88160008A816000870B50546C4
:100190000E46144604200D490870C22048702046BF
:1001A000E11704EB1161090A084A91702046E11732
:1001B00004EB11610912A4EB0121D1701046057105
:1001C0000146052000F076F870BD000059050020BA
:1001D00070B505460E460A2D4ED2DFE805F005063D
:1001E0000708090A4D4D4D0B47E046E045E044E065
:1001F00043E042E00F222249224800F0A5FD0024FE
:1002000007E01F4904F10800085C1F490855601CFD
:1002100084B2072CF5DB1D480078401E84B2F079CB
:10022000194908550846015D154A04F108001154A2
:100230000F221349134800F09BFD0F22104911486B
:1002400000F082FD00240AE00F48015D0C4A04F131
:100250000800105C814200D003E0601C84B2072CCF
:10026000F2DB00BF072C03DB02200949087002E023
:1002700004200749087000E000BF00BF70BD000007
:100280008B05002000400008B50400201800002065
:100290002F00002010B50446022005490870C02038
:1002A000487008468470032000F004F810BD000078
:1002B0005905002070B505460E460024022001F0C5
:1002C0002DF900BF0BE000BF0648008800F0800059
:1002D0000028F9D0305D0349091D0880641CAC4238
:1002E000F1DB70BD0044004000BFFEE730B50546BD
:1002F0000C462146284600F008FC691E615C8842D5
:1003000001D1012030BD0020FCE7704730B5044624
:1003100004254FF4302000F06FF80546042D17D166
:100320000C48006940F002000A490861084644612F
:10033000006940F0400008614FF4302000F05CF8A4
:1003400005460448006941F6FD710840014908610D
:10035000284630BD0020024004200B49C96801F046
:10036000010109B101200EE00749C96801F004014B
:1003700009B1022007E00449C96801F0100109B180
:10038000032000E004207047002002400348006979
:1003900040F08000014908617047000000200240E1
:1003A00070B504460D460426F00200F025F8064616
:1003B000042E11D10948006940F001000749086185
:1003C0002580F00200F018F806460448006941F65E
:1003D000FE71084001490861304670BD00200240AE
:1003E0000248034948600348486070472301674555
:1003F00000200240AB89EFCD00B502460423FFF791
:10040000ABFF034603E0FFF7A7FF0346521E012B95
:1004100001D1002AF7D102B90523184600BD00001A
:1004200070B5F848007802286FD1F748057845F094
:1004300080060146F5480078FFF758FF20B90321F0
:10044000304600F01DFD0DE2A5F160000B286FD2D3
:10045000DFE800F00614476FADE5F1F0EFEEED00D8
:10046000E9484078552804D00121304600F008FDC5
:1004700003E0AA21284600F003FDF2E100240AE08F
:10048000E149601C085CE24908550846005DE14905
:100490000855601CC4B2082CF2DB0F22DD49DE488F
:1004A00000F066FC0F22DB49DB4800F04DFC002425
:1004B00008E0D748005DD749095D884200D003E0D5
:1004C000601CC4B2082CF4DB00BF082C04DA012144
:1004D000304600F0D5FC03E00021284600F0D0FCB7
:1004E000BFE10F22CB49CC4800F02EFC002405E0F0
:1004F000C848005DC6490855601CC4B2082CF7DB2B
:100500006220C6490870002406E0B5E1C048015DDC
:10051000C24A601C1154C4B2082CF7DBBF490A2040
:1005200000F0F3FABD4948720A2000F0BBFC98E1E4
:1005300096E11622B749B84800F006FC002407E00F
:10054000B44904F10800085CB5490855601CC4B200
:100550000E2CF5DB6320B149087000240CE0B04894
:10056000015DAE4AA01C1154AE480470AC48005D59
:1005700000B903E0601CC4B20E2CF0DB00BFA94838
:100580000078A6494870A7490978C91CC8B2A34990
:1005900000F0BBFAA14AA3490978891C5054A1492B
:1005A0000978C91CC8B2114600F07CFC59E1964894
:1005B000407818B1944840780F2804DD0121304676
:1005C00000F05EFC2AE00F229249934800F0BCFB49
:1005D000002407E08F4904F10800085C90490855A1
:1005E000601CC4B2072CF5DB87484078401EC4B2BB
:1005F0008B48005D70B90021284600F041FC0920BD
:10060000FFF748FE804840788749087001208749F5
:10061000087003E00421304600F032FC21E18348F9
:10062000007848B9E021304600F02AFC2EE0D2E004
:10063000CDE078E0DAE02AE07C480078012804D1B7
:10064000E121304600F01CFC20E0784800780428C6
:1006500004D1E221304600F013FC17E07348007823
:1006600002280BD170480078401E6D4A115C284664
:1006700000F006FC00206D49087007E06C48017826
:10068000304600F0FDFB002068490870E9E05E4854
:10069000407818B15C484078072804DD01213046D5
:1006A00000F0EEFB3EE00F225A495B4800F04CFBA5
:1006B000002407E0574904F10800085C5849085530
:1006C000601CC4B2072CF5DB4F48407856490870CF
:1006D00008460078401E5249085CF8B1524800783C
:1006E000401E0B461A5C484841786920FFF74EFDD2
:1006F00000214D480078401E494A1154454A4A4855
:100700000078C01D11540F224249434800F030FBCD
:1007100045480178662000F0B3FB03E00521304630
:1007200000F0AEFB9DE0384840780E2804DD012142
:10073000304600F0A5FB49E03348407870B900240A
:1007400009E00020364908550021324A04F108002A
:100750001154601CC4B20E2CF3DB12E000240CE038
:100760002949A01C085C2E4908550846015D294A04
:1007700004F108001154601CC4B223484078A04220
:10078000EEDC16222349244800F0F2FA1622214911
:10079000214800F0D9FA00240AE02148015D1D4AF1
:1007A00004F10800105C814200D003E0601CC4B278
:1007B0000E2CF2DB00BF0E2C04DA0121304600F0D3
:1007C0005FFB03E00021284600F05AFB49E00620C9
:1007D000FFF760FD45E00120164908700A49497895
:1007E000481C0949491CFFF765FD3AE00648407876
:1007F00018B1054840780F281EDD0121304600F071
:100800003FFB2CE01A000020C30400201B00002046
:10081000380000208B05002000400008F50400206F
:10082000B504002019000020180000202F0000202F
:10083000300000202E00002010484078401EC4B236
:100840000F48005D38B10E48025D0C4841782846DB
:10085000FFF79CFC03E00521304600F011FB00BFD0
:1008600000BF00BF00200749087000F087F905208D
:1008700000F054FE00F08CF970BD0000C3040020AD
:10088000B50400201A00002070B54E4800780228F8
:100890007ED14D480078012820D16A204B4908704C
:1008A0004B480078451C002405E04948015D474A53
:1008B000601C115484B2AC42F7DBA81C85B2E8B2CC
:1008C000424900F022F9691E404A5054E8B21146EC
:1008D00000F0E8FA00203C4908706EE03C4840789F
:1008E0003C49087008460078402806D041280AD0C4
:1008F000422809D043285ED139E035498878C91C9F
:10090000FFF766FC58E057E0314800780D282DD1FC
:100910002F488079672829D100240DE02C48817860
:100920002D4A04F10800105C814203D1601C2B4960
:10093000487005E0601C84B2294800788442EDDBF1
:1009400000BF002407E02249E01D095C234AA01CE7
:100950001154601C84B2062CF5DB2049092000F0FC
:10096000D4F81E490872092000F09CFA24E01848C7
:10097000C0781C49087016488078092802D10320E5
:100980001949087012488078142800D100BF00E08F
:1009900016E00F48807806280CD11248007820B95C
:1009A0000021692000F06CFA04E00E480178E9208B
:1009B00000F066FA00E000BF00BF002001490870A7
:1009C00070BD0000250000202E000020F50400204E
:1009D00027050020270000206D0000201C000020BB
:1009E00019000020300000202F0000202DE9F041E8
:1009F000024600250026002000230024002791F84D
:100A000003C00CF00F0591F803C00CF0100CBCF102
:100A1000000F03D091F802C04CEA050591F800C020
:100A2000BCF1000F31D0146800202BE04FF0010C16
:100A30000CFA00F3B1F800C00CEA03069E4220D184
:100A400083004FF00F0C0CFA03F7BC4305FA03FCCC
:100A50004CEA040491F803C0BCF1280F06D14FF012
:100A6000010C0CFA00FCC2F814C00AE091F803C0B3
:100A7000BCF1480F05D14FF0010C0CFA00FCC2F894
:100A800010C0401C0828D1D31460B1F800C0BCF1DC
:100A9000FF0F34DD546800202EE000F1080C4FF009
:100AA000010808FA0CF3B1F800C00CEA03069E42F4
:100AB00021D183004FF00F0C0CFA03F7BC4305FA69
:100AC00003FC4CEA040491F803C0BCF1280F05D1E3
:100AD00000F1080C08FA0CF8C2F8148091F803C071
:100AE000BCF1480F07D100F1080C4FF0010808FADB
:100AF0000CF8C2F81080401C0828CED35460BDE822
:100B0000F081416170470161704710B502460B46A4
:100B10000020002104E05C5C0444E0B24C1CE1B223
:100B2000541E8C42F7DC10BD00BFFEE708B5012162
:100B3000102000F08FF84FF40050ADF800001020A6
:100B40008DF8030003208DF8020069460A48FFF77C
:100B50004DFF4FF400510848FFF7D5FF4FF4804098
:100B6000ADF8000069460448FFF740FF4FF48041AC
:100B70000148FFF7C8FF08BD0010014010B54FF451
:100B800000510248FFF7BFFF10BD000000100140F8
:100B900010B54FF400510248FFF7B3FF10BD00003D
:100BA0000010014000BFFEE77047000070B5002153
:100BB00000230F22C47804B3154C246804F4E064C5
:100BC000C4F5E064210AC1F10403CA40447804FA80
:100BD00003F184781440214309010E4C0678A15595
:100BE000047804F01F050124AC4005786D11AD00B8
:100BF00005F1E025C5F8004109E0047804F01F057F
:100C00000124AC40044D0678761145F8264070BDAD
:100C10000CED00E000E400E080E100E00249014367
:100C2000024A1160704700000000FA050CED00E078
:100C30007047000029B1064AD2690243044BDA61C9
:100C400004E0034AD2698243014BDA617047000035
:100C50000010024029B1064A92690243044B9A618E
:100C600004E0034A92698243014B9A617047000095
:100C70000010024030B500210022002400232D4D39
:100C80006D6805F00C0121B1042905D0082923D194
:100C900005E0294D056022E0274D05601FE0254D48
:100CA0006D6805F47012234D6D6805F480340225DB
:100CB00005EB92421CB9214D554305600BE01D4DDB
:100CC0006D6805F400351DB11C4D5543056002E00B
:100CD000194D5543056002E0174D056000BF00BF88
:100CE000144D6D6805F0F0010909154D6B5C056840
:100CF000DD4045600F4D6D6805F4E061090A104D57
:100D00006B5C4568DD4085600A4D6D6805F4605197
:100D1000C90A0B4D6B5C4568DD40C560054D6D68CB
:100D200005F44041890B074D6B5CC568B5FBF3F5D5
:100D3000056130BD0010024000127A0000093D003C
:100D4000420000205200002030B503460C461546F4
:100D5000002207E0184600F008F824F812009B1C57
:100D6000501C82B2AA42F5DB30BD014608887047AC
:100D70002DE9F05F80468A461746B8F1006F02D32E
:100D80003348804501D3BDE8F09FFFF729FBA8F168
:100D9000006B4FEA9B25CBF34809C9F50074A742C5
:100DA00000DC3C464EE04FF0006101EB85208A14E8
:100DB0002849FFF7C9FF00260BE009EB060025498B
:100DC00031F810004FF6FF71884200D003E0701C2C
:100DD00086B2A642F1DB00BFA6421BDA4FF00061EB
:100DE00001EB8520FFF792FA002608E03AF816009A
:100DF00006EB0901174A22F81100701C86B2A642C0
:100E0000F4DB4FF0006101EB85208A14114900F0FA
:100E100023F804E022465146404600F01DF8A74260
:100E200000D110E06D1C4FF000090AEB440A08EBFA
:100E30004408381B87B2B7F5007F02DD4FF4007419
:100E400000E03C46AFE700BFFFF7A0FA00BF9AE71B
:100E500000000108A00000202DE9F04105460E46E3
:100E60001746002407E036F814102846FFF798FAD2
:100E7000AD1C601C84B2BC42F5DBBDE8F08170475C
:100E800038B504460D468DF800408DF8015069468E
:100E90000320FFF73AFE8DF802006946032000F0B8
:100EA00001F838BD70B505460E460024022000F05A
:100EB00035FB00BF0BE000BF0648008800F0800053
:100EC0000028F9D0305D0349091D0880641CAC423C
:100ED000F1DB70BD0038014010B500F001F810BD25
:100EE0000CB50020019000903348006840F4803039
:100EF0003149086000BF3048006800F400300090BD
:100F00000198401C0190009818B90198B0F5A06FA5
:100F1000F1D12948006800F4003010B101200090A0
:100F200001E0002000900098012843D12348006888
:100F300040F01000214908600846006820F00300D6
:100F400008600846006840F0020008601A484068DF
:100F5000194948600846406848600846406840F4BF
:100F6000806048600846406820F47C10486008466D
:100F7000406840F4E81048600846006840F080701F
:100F8000086000BF0C48006800F000700028F9D02D
:100F90000948406820F00300074948600846406857
:100FA00040F00200486000BF0348406800F00C00B9
:100FB0000828F9D10CBD00000010024000200240BA
:100FC000042808D14FF0E021096941F004014FF0F5
:100FD000E022116107E04FF0E021096921F00401EE
:100FE0004FF0E022116170477047000010B51348C0
:100FF000006840F001001149086008464068104947
:1010000008400E494860084600680E4908400B49F0
:1010100008600846006820F48020086008464068A0
:1010200020F4FE0048604FF41F008860FFF754FF73
:101030004FF000600449086010BD0000001002403D
:101040000000FFF8FFFFF6FE08ED00E010B540F2EB
:101050002551374800F06EF9002867D0344800F079
:1010600025FA3449344A127888543348007868BBEA
:101070000120324908702F48007860380B281ED2B2
:10108000DFE800F0061107080A0B0C0D190915001E
:1010900000BF00BF00BF00BF00BF00BF00BF0320F4
:1010A0002749087011E00A20254908700DE00F203B
:1010B0002349087009E00F202149087005E000204D
:1010C0001F4908701D49087000BF00BF1B48007809
:1010D00001282BD1174800786A2801D1012000E0AF
:1010E000002014490978682901D1012100E000217C
:1010F000084340B110480078012804D10D484078D9
:10110000C01C0F4908700E480078401E0A49097833
:10111000884206DC00200849087002200749087050
:1011200004E005480078401C0349087010BD000029
:1011300000380140C3040020410000201A000020B4
:101140001B00002010B586B00446012144F20500C2
:10115000FFF780FD4FF40070ADF8140003208DF808
:10116000160018208DF8170005A91C48FFF73EFC53
:101170004FF48060ADF8140048208DF8170005A9E1
:101180001648FFF733FC25208DF8000001208DF86C
:1011900001008DF802008DF803006846FFF706FD98
:1011A00001940020ADF80800ADF80A00ADF80C007D
:1011B000ADF810000C20ADF80E0001A9084800F0B1
:1011C00009F9002240F22551054800F0DDF801211F
:1011D000034800F0A3F806B010BD0000000801406D
:1011E0000038014010B540F225511E4800F0A2F829
:1011F000002835D01B4800F059F91B491B4A1278CA
:1012000088541A480078A0B908460078022803DB01
:1012100008460078322805DD002015490870154978
:10122000087006E010480078114908700120114943
:10123000087010480078012812D10D480078401E2F
:101240000A490978884206DC002008490870022013
:101250000849087004E005480078401C03490870FC
:1012600010BD000000440040270500204000002081
:10127000260000202500002010B586B0044601217C
:101280000520FFF7E7FC01214804FFF7D3FC042009
:10129000ADF8140003208DF8160018208DF8170003
:1012A00005A91C48FFF7A2FB0820ADF81400482050
:1012B0008DF8170005A91748FFF798FB26208DF831
:1012C000000002208DF801008DF8020001208DF849
:1012D00003006846FFF76AFC01940020ADF808009F
:1012E000ADF80A00ADF80C00ADF810000C20ADF818
:1012F0000E0001A9084800F06DF8002240F22551C7
:10130000054800F041F80121034800F007F806B055
:1013100010BD0000000801400044004021B1828956
:1013200042F40052828104E082894DF6FF731A4034
:101330008281704770B502460024002300250020FA
:1013400040F66A16B14200D100BFC1F3421501F068
:101350001F03012606FA03F3012D02D196893340BB
:1013600006E0022D02D1168A334001E0968A33400E
:101370000C12012606FA04F41688344013B10CB19D
:10138000012000E0002070BDF0B5034600240026D7
:101390000025002040F66A17B94200D100BF184668
:1013A000C1F3421401F01F06012707FA06F5012CCC
:1013B00001D10C3004E0022C01D1103000E01430D7
:1013C0001AB107682F43076002E00768AF43076060
:1013D000F0BD00002DE9F04786B005460E4600241A
:1013E000A24600BFA1460027B08900B100BF2F462A
:1013F0002C8A4CF6FF700440F08804432C82AC89A0
:101400004EF6F3100440B0883189084371890843CF
:101410000443AC81AC8A4FF6FF400440B0890443DA
:10142000AC8201A8FFF726FC1F48874202D1DDF8F5
:1014300010A001E0DDF80CA0A88900F4004040B144
:101440000AEBCA0000EB0A1031684900B0FBF1F862
:1014500007E00AEBCA0000EB0A1031688900B0FB14
:10146000F1F86420B8FBF0F004012009642101FBCD
:101470001089A88900F4004040B1322000EBC90077
:10148000B0FBF1F000F00700044308E0322000EB6D
:1014900009106421B0FBF1F000F00F0004432C812F
:1014A00006B0BDE8F087000000380140014688889A
:1014B000C0F30800704700BFFEE702E008C8121F33
:1014C00008C1002AFAD170477047002001E001C12D
:1014D000121F002AFBD1704710B56FF00400FFF710
:1014E0006FFD0A4800680A49B0FBF1F0094908702D
:1014F0000846007800EB4001C1EBC0104FF6FF71C9
:1015000001EAC0000449088010BD0000000000206E
:1015100000127A0014000020160000200146114A33
:1015200012884A434FF0E0235A6100229A611A461A
:10153000126942F001021A6100BF4FF0E022106907
:1015400000F001021AB100F48032002AF5D04FF009
:10155000E022126922F001024FF0E0231A6100221A
:101560009A6170471600002000244FF4A060FFF736
:1015700055FB4FF4E130FFF7E5FD4FF4E130FFF7A5
:101580007BFEFFF7A9FFFFF7D1FAFFF701FB32203F
:10159000FFF7C4FFFFF7F2FA162234493448FFF789
:1015A000D3FB00BF04E03148005D32490855641C9C
:1015B000082CF8DB2D4904F10800085CFF2812D143
:1015C000002408E00021294A04F1080011540020F9
:1015D00029490855641C0E2CF4DB162223492448A3
:1015E000FFF7C6FB0AE0002406E0204904F10800EA
:1015F000085C21490855641C0E2CF6DB002406E02B
:101600001E490C701C48005D00B902E0641C0E2CE1
:10161000F6DB00BF012240F225511948FFF7B4FE66
:10162000012240F225511748FFF7AEFE3220FFF7A6
:1016300075FFFFF7ADFA3220FFF770FFFFF79EFA54
:101640000A20FFF76BFFFFF7A3FA0A20FFF766FFF8
:10165000FFF794FA0A20FFF761FFFFF799FA03E01A
:10166000FEF7DEFEFFF710F9FAE700006D0000203C
:101670000040000838000020B504002019000020B8
:101680000038014000440040A81600080000002077
:1016900058000000BA140008001700085800002085
:1016A00050090000CA14000800A24A04000000000B
:1016B0000000000001020304060708090000000002
:1016C00000000000670000000000000000000000B3
:1016D000000000000000000000000000000000000A
:1016E00000000000000000000000000000000102F7
:1016F00003040102030406070809020406080000A7
:0400000508000131BD
:00000001FF
